:020000040800F2
:1000000018050020010100082B150008CB0F00087F
:100010002915000875010008C12300080000000030
:10002000000000000000000000000000651F000844
:100030007701000800000000AD1E0008671F0008DF
:100040001B0100081B0100081B0100081B01000820
:100050001B0100081B0100081B0100081B01000810
:100060001B0100081B0100081B0100081B01000800
:100070001B0100081B0100081B0100081B010008F0
:100080001B0100081B0100081B0100081B010008E0
:100090001B0100081B0100081B0100081B010008D0
:1000A0001B0100081B0100081B0100081B010008C0
:1000B0001B0100081B0100081B0100081B010008B0
:1000C0001B0100081B0100081B0100081B010008A0
:1000D0001B0100081B0100081B0100081B01000890
:1000E0001B0100081B0100081B010008DFF80CD0F1
:1000F00000F02EF800480047D5250008180500201C
:100100000648804706480047FEE7FEE7FEE7FEE7B1
:10011000FEE7FEE7FEE7FEE7FEE7FEE7DD1F00087D
:10012000ED00000830B50B460146002020220124D6
:1001300009E021FA02F59D4205D303FA02F5491BB5
:1001400004FA02F52844151EA2F10102F1DC30BDCB
:10015000064C074D06E0E06840F0010394E8070014
:1001600098471034AC42F6D3FFF7C4FFA4C400088C
:10017000C4C40008FEE7704770B5044600F0F2F80A
:100180000546601C02D004480078044400F0EAF8F8
:10019000401BA042FAD370BD040000202DE9F84FA7
:1001A000DFF890A100220AF1040B144601274FF05A
:1001B0000F090BF1040E00BF0B6807FA04F52B4082
:1001C000AB4274D1DFF870C14E68A6EB0C086645EF
:1001D0002BD00DDC032E34D005DC36B3012E19D024
:1001E000022E2FD11BE0112E16D0122E2AD119E08B
:1001F000B8F5881F19D006DCB8F5803F15D0B8F5E2
:10020000801F1FD111E0B8F5001F0ED0B8F5041FF4
:1002100018D10AE0CA6815E0CA68121D12E0CA685F
:1002200008320FE0CA680C320CE08A682AB1012A51
:100230004FF0080203D0456104E0042202E00561AA
:1002400000E00022FF2B01D8064601E000F1040681
:100250004FEA840501D9A5F12005D6F800C009FAB6
:1002600005F82CEA080C02FA05F54CEA050CC6F86C
:1002700000C04D68ED0057D5304DAE6946F001061F
:10028000AE61AD6924F0030605F0010500952C4D23
:1002900006EB050CDCF80850A6074FEA167809FAB9
:1002A00008F6B543274EB04202D1002610E03BE0ED
:1002B000254EB04201D101260AE0244EB04201D1C0
:1002C000022605E0224EB04201D1032600E00426BA
:1002D00006FA08F62E43CCF808604D68DAF800609C
:1002E000ED03554601D51E4300E09E432E604D6848
:1002F000DBF80060AD035D4601D51E4300E09E4380
:100300002E604D68DEF80060ED02754601D51E4393
:1003100000E09E432E604D68AD020E4D2E6801D563
:100320001E4300E09E432E60641C102CFFF444AF7B
:10033000BDE8F88F000401400000111000100240D9
:100340000000014000080140000C01400010014085
:10035000001401400C0401400AB101617047090416
:10036000FBE700000148806870470000040000209F
:1003700002488168027811448160704704000020BF
:10038000074810B5016841F010010160032000F03A
:1003900089F8002000F006F800F024F8002010BDD5
:1003A0000020024070B50D4D04464FF47A71287854
:1003B000B1FBF0F00A490968B1FBF0F000F03BFC3A
:1003C00048B9102C07D200222146501E00F04AF8EE
:1003D00000206C6070BD012070BD00000400002092
:1003E000000000201D4808B5816941F001018161CC
:1003F000806900F001000090032000F053F8002213
:1004000011466FF00B0000F02DF8002211466FF03E
:100410000A0000F027F8002211466FF0090000F0F2
:1004200021F800221146501F00F01CF8002211464E
:10043000101F00F017F800221146901E00F012F86D
:1004400000221146501E00F00DF80548416821F0C9
:10045000E06141F00071416008BD00000010024001
:1004600000000140F0B40E4B1B680C46C3F302239E
:10047000C3F10705042D00D90425191D072901D250
:10048000002300E0DB1E012606FA05F1491E21408B
:1004900099409E40761E16403143F0BC01F046B8AC
:1004A0000CED00E0064900F0070208684FF6FF0374
:1004B000184040EA0220034A1043086070470000D9
:1004C0000CED00E00000FA052DE9F047DFF83C8173
:1004D00005460E46D8F8000000F00700B0420CD2E6
:1004E000D8F8001021F007013143C8F80010D8F8FF
:1004F000000000F00700B04263D12878444C800728
:1005000005D56068A96820F0F0000843606028788D
:10051000C00745D06868012816D02168022816D087
:10052000890700294DDA616821F003010143616008
:10053000FFF718FF6968074641F2883001290FD09C
:100540000229814619D027E021688903E9E789015A
:10055000E7E700BFFFF706FFC11B494501D918E0D7
:1005600081466068C0F381000128F3D118E000BF24
:10057000FFF7F8FEC11B49450BD86068C0F3810046
:100580000228F5D10CE000BFFFF7ECFEC11B494586
:1005900002D90320BDE8F087606810F00C0FF3D19A
:1005A000D8F80010404601F00701B1420BD90168AC
:1005B00021F0070131430160006800F00700B042FC
:1005C00001D00120E6E72878400705D56068E96892
:1005D00020F4E060084360602878000706D5606872
:1005E000296920F4605040EAC100606000F03CF8E6
:1005F0006168084AC1F30311515CC84006490860AC
:100600000020FFF7CFFE0020C4E7000000200240DA
:100610000010024000270008000000200148006888
:100620007047000000000020044805490068496840
:10063000044AC1F30221515CC84070470000002009
:100640000010024010270008044805490068496866
:10065000044AC1F3C221515CC84070470000002029
:10066000001002401027000812A185B00FC98DE8C4
:100670000F0014A0144A006804905168134801F058
:100680000C03042B10D0082B0ED1C1F38343C903F4
:100690001DF803000AD5516804AAC1F34041515C1A
:1006A0000A4A5043B0FBF1F005B07047084948438F
:1006B000FAE7000002030405060708090A0B0C0DFF
:1006C0000E0F1010010200000010024000127A000C
:1006D00000093D002DE9F84F04460078B94DC007E8
:1006E00048D06868C0F38100012807D06868C0F36B
:1006F0008100022809D16868C00306D528688003F4
:1007000038D5606800286FD034E06068B0F5803F6D
:100710000BD010B1B0F5A02F11D0286820F4803094
:100720002860286820F4802002E0286840F48030A7
:100730002860606888B1FFF715FE064609E0286862
:1007400040F480202860F0E7FFF70CFE801B64284F
:1007500075D828688003F7D50CE0FFF703FE06463E
:1007600005E000BFFFF7FEFD801B6428F0D8286875
:100770008003F7D42078944E80074FF001094FF0A2
:1007800000083BD5686810F00C0F07D06868C0F30C
:100790008100022809D16868C00306D42868800750
:1007A00014D5206901281FD110E02069B0B1C6F826
:1007B0000090FFF7D7FD074605E000BFFFF7D2FD29
:1007C000C01B0228C4D828688007F7D5286861694B
:1007D00020F0F80040EAC10028600FE0C6F8008071
:1007E000FFF7C0FD074606E0E9E000BFFFF7BAFDEE
:1007F000C01B022823D828688007F7D42078000778
:100800002CD57248A169D9B1C0F80090FFF7AAFDB4
:10081000074604E0FFF7A6FDC01B02280FD8686A50
:100820008007F7D56A484FF4FA510068B0FBF1F041
:10083000009000BF0098411E0091FAD20EE080E0C7
:10084000C0F80080FFF78EFD074604E0FFF78AFD41
:10085000C01B022875D8686A8007F7D42078400743
:1008600060D5E8690027C00008D4E86940F08050EE
:10087000E861E869012700F0805000905548016860
:10088000C90513D40168834641F480710160FFF704
:1008900069FD824606E000BFFFF764FDA0EB0A0099
:1008A00064284ED8DBF80000C005F5D5E0680128C3
:1008B0000AD008B1052813D0286A20F00100286268
:1008C000286A20F0040002E0286A40F00100286253
:1008D000E06841F2883B98B1FFF744FD82460BE0A7
:1008E000286A40F004002862EEE700BFFFF73AFDF7
:1008F000A0EB0A0159455AD8286A8007F6D50CE0C2
:10090000FFF730FD824605E0FFF72CFDA0EB0A0162
:1009100059454CD8286A8007F6D41FB1E86920F001
:100920008050E861E06988B36968C1F381010229F8
:1009300045D00228C6F8608004D0FFF713FD0446B6
:1009400038E034E0FFF70EFD074604E0FFF70AFD4C
:10095000C01B02282BD828688001F7D4206AB0F584
:10096000803F05D16868A16820F4003008436860C2
:10097000D4E908010843696821F4741108436860E8
:10098000C6F86090FFF7EEFC044606E015E000BFF5
:10099000FFF7E8FC001B022809D828688001F7D57A
:1009A0000BE000BFFFF7DEFC001B022802D903208A
:1009B000BDE8F88F28688001F4D40020F8E7012012
:1009C000F6E700000010024000004242800442426C
:1009D000000000200070004070B5040005D0002524
:1009E000A56294F8510010B104E0012070BD2046CA
:1009F00000F034F8022084F851002068016821F0EA
:100A000040010160D4E901010843D4E90312114314
:100A1000084361690843218B01F400710843E169CF
:100A20000843216A0843A16A084321680860A06955
:100A3000042101EA1040616A084321684860216886
:100A4000E06A08612068C16921F40061C1616565DF
:100A5000012084F85100002070BD000010B500682E
:100A6000114986B088421CD11048816941F48051F7
:100A7000816180690E4C00F480500490A0200090A9
:100A8000022001900320039069462046FFF786FB71
:100A900000214020CDE90001029169462046FFF780
:100AA0007DFB06B010BD0000003001400010024088
:100AB000000801402DE9F84F044690F85000002648
:100AC000994617460D4601280DD04FF0010B84F8CA
:100AD00050B0FFF747FC804694F85100B246012819
:100AE00004D0022694E00220BDE8F88F002D7BD0D0
:100AF000002F79D0032084F85100C4F854A0256356
:100B0000A786E786C4F838A0A4F83CA0A4F83EA0C5
:100B1000C4F844A0C4F840A0A068B0F5004F04D1C8
:100B20002068016841F4804101602068016849063D
:100B300003D4016841F040010160E068B0F5006F46
:100B4000606804D030B3E08E012823D03EE010B1BD
:100B5000E08E01281AD135F8021B206805E02068D4
:100B60008168890706D535F8021BC160E08E401EFA
:100B7000E0860BE0B9F1000F34D0B9F1FF3F05D0AA
:100B8000FFF7F0FBA0EB080149452BD2E08E0028CF
:100B9000E5D11EE0216815F8010B087306E0206816
:100BA0008168890706D515F8011B0173E08E401E88
:100BB000E0860BE0B9F1000F14D0B9F1FF3F05D08A
:100BC000FFF7D0FBA0EB080149450BD2E08E0028CF
:100BD000E5D14B46012202212046CDF8008001F0EC
:100BE00076F910B1032613E011E04246494620464B
:100BF00001F05DF918B101262020606508E0A068C9
:100C000018B92068C16880680090606D00B1012645
:100C100084F851B084F850A0304665E74FF0E021E9
:100C20000428086903D020F004000861704740F0F0
:100C30000400FAE7704710B5401EB0F1807F01D381
:100C4000012010BD4FF0E02460610F21601700F01B
:100C50006DFC0020A06107202061002010BD10B5B0
:100C6000FFF7E8FF10BD30B590F83C20012A20D0F6
:100C7000012280F83C20022380F83D3003685C6844
:100C800024F070045C6003685C680D682C435C6051
:100C900003689C6824F080049C6003689C68496831
:100CA0000C439C6080F83D20002180F83C100846F1
:100CB00030BD022030BD00001FB500680A498842DF
:100CC00011D18020009002200190039069460748CE
:100CD000FFF764FA0648416821F4406141F0E061A1
:100CE00041F4406141601FBD00040040001001401C
:100CF0000000014070B5044690F83C000D46012804
:100D00000DD0012684F83C60022084F83D0042B1F9
:100D1000042A18D0082A2AD00C2A4DD139E0022002
:100D200070BD206801F0C0F92068816941F00801B8
:100D300081612068816921F00401816120688169F5
:100D40002A69114311E0206801F0D6F92068816911
:100D500041F4006181612068816921F480618161D1
:100D6000206881692A6941EA0221816124E02068C2
:100D700001F0EEF92068C16941F00801C161206805
:100D8000C16921F00401C1612068C1692A69114368
:100D900011E0206801F008FA2068C16941F400619F
:100DA000C1612068C16921F48061C1612068C169A5
:100DB0002A6941EA0221C16184F83D60002084F87B
:100DC0003C0070BD10B5040003D094F83D0010B194
:100DD00007E0012010BD002084F83C00204600F010
:100DE0000DF8022084F83D00211D206801F01AF959
:100DF000012084F83D00002010BD000008B5006807
:100E00000649884208D10648C16941F00201C16122
:100E1000C06900F00200009008BD0000000400401E
:100E20000010024010B504460068012201F030F9BC
:100E300007492068884203D1416C41F40041416474
:100E40002068016841F001010160002010BD000030
:100E5000002C014070B5040004D094F8390000253E
:100E600010B106E0012070BD84F83850204600F033
:100E700023F8242084F839002068C16821F4005147
:100E8000C160204601F0B2F92068016921F4904167
:100E900001612068416921F02A0141612068C1682F
:100EA00041F40051C160E563202084F8390084F8E2
:100EB0003A00002070BD000010B50068114986B0EE
:100EC00088421CD11048C16941F40031C161C06938
:100ED0000E4C00F400300490042000900220019099
:100EE0000320039069462046FFF758F900210820A7
:100EF000CDE90001029169462046FFF74FF906B09F
:100F000010BD0000004400400010024000080140F5
:100F10002DE9F843044690F839001F4616460D4661
:100F2000202850D1A5B19EB194F8380001284AD0AC
:100F3000012084F838004FF00008C4F83C802120DC
:100F400084F83900FFF70EFAA6848146E68426E08D
:100F50000120BDE8F883E08C401EE084A0684B4689
:100F6000B0F5805F4FF000024FF0800120460097FF
:100F700003D001F0F3F9E8B90DE001F0EFF9C8B9D9
:100F800028882168C0F308004860206908B16D1CFA
:100F900005E0AD1C03E0216815F8010B4860E08C0A
:100FA0000028D8D14B46002240212046009701F06E
:100FB000D5F908B10320CCE7202084F8390084F863
:100FC00038800020C5E70220C3E7FEE770B506467B
:100FD00000214F239F22084600F01EF9002400251F
:100FE000304600F071F96D1CADB2502DF8D3641C81
:100FF000A4B2A02CF3D370BD70B50022402181486B
:10100000FFF7AAF91420FFF7B7F87F4D4FF40074EB
:10101000002221462846FFF79FF91420FFF7ACF87D
:10102000012221462846FFF797F91420FFF7A4F87C
:10103000112000F075F97820FFF79EF8212000F0CC
:101040006FF9212000F06CF9B12000F069F905205A
:1010500000F01AF93A2000F017F93A2000F014F9DC
:10106000B22000F05DF9052000F00EF93A2000F002
:101070000BF93A2000F008F9B32000F051F90520EF
:1010800000F002F93A2000F0FFF83A2000F0FCF8F6
:10109000052000F0F9F83A2000F0F6F83A2000F0C8
:1010A000F3F8B42000F03CF9032000F0EDF8C02084
:1010B00000F036F9622000F0E7F8022000F0E4F8D2
:1010C000042000F0E1F8C12000F02AF9C02000F06F
:1010D000DBF8C22000F024F90D2000F0D5F8002044
:1010E00000F0D2F8C32000F01BF98D2000F0CCF8FE
:1010F0006A2000F0C9F8C42000F012F98D2000F039
:10110000C3F8EE2000F0C0F8C52000F009F90E2069
:1011100000F0BAF8E02000F003F9102000F0B4F875
:101120000E2000F0B1F8022000F0AEF8032000F02D
:10113000ABF80E2000F0A8F8072000F0A5F8022078
:1011400000F0A2F8072000F09FF80A2000F09CF8B9
:10115000122000F099F8272000F096F8372000F0D0
:1011600093F8002000F090F80D2000F08DF80E208C
:1011700000F08AF8102000F087F8E12000F0D0F8A5
:10118000102000F081F80E2000F07EF8032000F01F
:101190007BF8032000F078F80F2000F075F80620A7
:1011A00000F072F8022000F06FF8082000F06CF8F0
:1011B0000A2000F069F8132000F066F8262000F0FD
:1011C00063F8362000F060F8002000F05DF80D2094
:1011D00000F05AF80E2000F057F8102000F054F8F4
:1011E0003A2000F09DF8052000F04EF8362000F07F
:1011F00097F8A82000F048F8BDE87040292000F0DA
:101200008FB80000000C014000080140014908604F
:1012100070470000380400402DE9F041401C87B2BF
:10122000521C1A311A3395B28EB29CB22A2000F0A9
:1012300077F8380A00F028F8F8B200F025F8280A04
:1012400000F022F8E8B200F01FF82B2000F068F858
:10125000300A00F019F8F0B200F016F8200A00F099
:1012600013F8E0B200F010F8BDE8F0412C2000F0D7
:1012700057B810B514460B460246FFF7CDFF20467F
:10128000BDE8104000F020B831B50C4C00224021E0
:101290002046FFF761F8012211020948FFF75CF8C8
:1012A0004FF4FA73012269460648FFF703FC012256
:1012B00040212046FFF750F838BD0000000C0140E7
:1012C000000801402800002031B582B0114CBDF863
:1012D00008000022000A8DF8000040212046FFF798
:1012E0003BF8012211020C48FFF736F84FF4FA756B
:1012F0002B46012269460948FFF7DCFB2B460122F9
:1013000002A90648FFF7D6FB012240212046FFF73D
:1013100023F83EBD000C01400008014028000020D9
:1013200031B50C4C002240212046FFF715F8002271
:10133000A1150948FFF710F84FF4FA730122694626
:101340000648FFF7B7FB012240212046FFF704F8CB
:1013500038BD0000000C01400008014028000020BA
:1013600070B5224886B0816941F0200181618169B0
:1013700001F020010491816941F0040181618169DA
:1013800001F004010491816941F0100181618169DA
:1013900001F010010491816941F0080181618069C7
:1013A000134D00F008004FF44074049000222146D1
:1013B0002846FEF7D1FF0F4E002240213046FEF7AF
:1013C000CBFF009402200124039069460194284633
:1013D000FEF7E4FE4020CDE90004032003906946B7
:1013E0003046FEF7DBFE06B070BD00000010024084
:1013F00000080140000C0140114810B50F49016080
:101400004FF48271416000218160C1604FF400722D
:101410000161C0E905120822C0E907214162816229
:101420000A21C162FFF7D8FA002805D0BDE81040B4
:10143000452104A000F0C5BF10BD000000300140F0
:10144000280000202E2E2F5372632F7370692E6395
:101450000000000010B51C488AB01A49016040F233
:101460002B110024C0E901144FF47A71C0E9031470
:1014700080218161FFF7A6FC18B13F2113A000F085
:10148000A0FF079407A910480894FFF7ECFB18B1D8
:1014900046210EA000F095FF602000906420CDE969
:1014A00001040422694608480494FFF723FC18B19C
:1014B0004F2106A000F085FF0348FFF7FDFB0AB0AF
:1014C00010BD000000040040C00000202E2E2F534D
:1014D00072632F74696D2E63000000000D4810B513
:1014E0000B4901604FF4E1314160002181600C2221
:1014F000C160C0E904128161C161FFF7ABFC002843
:1015000005D0BDE81040422103A000F05ABF10BD35
:1015100000440040800000202E2E2F5372632F7550
:10152000736172742E630000FEE770470907090EAD
:10153000002806DA00F00F0000F1E02080F8141D0A
:10154000704700F1E02080F800147047FFF73EBDBF
:101550002DE9F05F81462B481E46DDF828B08388D0
:1015600088464B4502D3C188414504D2BDE8F05FAF
:1015700025A000F027BFB088410700D0012101EB72
:10158000D000203AF1885043484331684FF0800A38
:101590000F18002530E0002425E000BFABF57F41A7
:1015A000FF39397804F007022AFA02F001EA000153
:1015B00001D009B908E081B108EB050081B209EB5F
:1015C000040080B20B9A06E008EB050081B209EB3B
:1015D000040080B25A4600F007FCE043400700D107
:1015E0007F1C641CA4B2B088A042D7D830794007D1
:1015F00000D07F1C6D1CADB2F088A842CBD8BDE8EE
:10160000F09F0000000100204465627567203A20C9
:101610005061696E745F44726177436861722049FA
:101620006E70757420657863656564732074686591
:10163000206E6F726D616C20646973706C617920CB
:1016400072616E67650D0A002DE9FF4F8046834881
:1016500085B00F4684881299444502D3C088B842A9
:1016600005D809B07E48BDE8F04F00F0ABBE0320BE
:101670000024A0EB420015B20FFA80FA01297AD0BB
:10168000E9E0264661E000BF4FF0010908EB0400E5
:1016900007EB060B02901FFA8BF1CDF8009080B299
:1016A0004B46089A00F090F9A8EB040004901FFA4A
:1016B0008BF1CDF8009080B20123089A00F084F9F4
:1016C0003819CDE9009081B2A8EB060B1FFA8BF018
:1016D0000123089A00F078F9381B039081B2CDF805
:1016E00000901FFA8BF00123089A00F06DF904981E
:1016F000A7EB060B1FFA8BF1CDF8009080B2012307
:10170000089A00F061F902981FFA8BF1CDF8009069
:1017100080B20123089A00F057F9039808EB060BF2
:1017200081B2CDF800901FFA8BF00123089A00F0E7
:101730004BF90198CDF8009081B21FFA8BF001238C
:10174000089A00F041F9761C36B2AE429CDDBAF13F
:10175000000F06DA0AEB8400801D0FFA80FA08E019
:1017600009E0611B0AEB81000A306D1E0FFA80FA56
:101770002DB2641C24B2AC4283DD09B0BDE8F08F09
:1017800008EB0400012607EB050902901FFA89F116
:10179000009680B2139B089A00F016F9A8EB04009B
:1017A00003901FFA89F1009680B2139B089A00F00B
:1017B0000BF93819CDE9006081B2A8EB05091FFAD1
:1017C00089F0139B089A00F0FFF8A7EB040B1FFAAF
:1017D0008BF11FFA89F00096139B089A00F0F4F839
:1017E0000398A7EB05091FFA89F1009680B2139BB5
:1017F000089A00F0E9F802981FFA89F1009680B281
:10180000139B089A00F0E0F808EB05091FFA8BF12A
:101810001FFA89F00096139B089A00F0D5F80198FA
:10182000009681B21FFA89F0139B089A00F0CCF859
:10183000BAF1000F05DA0AEB8400801D0FFA80FA76
:1018400007E0611B0AEB81000A306D1E0FFA80FA77
:101850002DB2641C24B2AC4292DD8EE70001002060
:101860001CC400082DE9FF5F1E46934689460024EC
:10187000DDF8388019E0009904FB06F000250BEB39
:10188000040701EB400A0DE009EB0500A02808DA87
:10189000502F06DA0AEB450180B20A88B9B200F08F
:1018A000A3FA6D1CB542EFDB641C4445E3DBBDE8E5
:1018B000FF9F00002DE9FE4F1646324A1D469388D1
:1018C000834208D3D3888B4205D39388B34202D393
:1018D000D288AA4204D2BDE8FE4F2BA000F072BD10
:1018E00083468A46321A00D5821B91466A1A002A1C
:1018F00000DD4A1B90464FF0FF32B34501D2012074
:1019000000E010460290AA4500D2012209EB08042B
:10191000002701927F1C0D98FFB2012805D10320FA
:10192000B7FBF0F100FB1170F8B1012000905146B7
:1019300058460E9B0C9A00F047F800BFB8EB440FD6
:1019400007DCB3451CD0029944440BEB01001FFA9D
:1019500080FBB9EB440FDDDBAA4511D001994C4463
:101960000AEB01001FFA80FAD4E7012000904FF63D
:10197000FF72514658460E9B00F026F80027DDE71F
:10198000BDE8FE8F000100204465627567203A20A3
:101990005061696E745F447261774C696E6520496D
:1019A0006E7075742065786365656473207468650E
:1019B000206E6F726D616C20646973706C61792048
:1019C00072616E67650D0A002DE9F05F8146264859
:1019D0001C46884683880A9993464B4502D3C288A1
:1019E000424504D2BDE8F05F204800F0EBBC01297D
:1019F00001D0002634E00025681E00EB440718E003
:101A000009EB05000026A0EB040A0EE0BAF1000F76
:101A10000DD408EB0600001B09D481B21FFA8AF02E
:101A20005A4600F0E1F9761C36B2B742EEDC6D1C86
:101A30002DB2AF42E4DCBDE8F09F002509EB0607BC
:101A40007F1E09E008EB0500401E81B2B8B25A467D
:101A500000F0CAF96D1C2DB2A542F3DB761C36B23C
:101A6000A642EADBE7E700000001002060C40008AE
:101A70002DE9FE4F824628480C461F46DDE90D152C
:101A800083880C9E9146534509D3C288A24206D34F
:101A900083884A464B4502D3C088B84204D2BDE889
:101AA000FE4F1EA000F08EBC0020804659B90EE00B
:101AB0000096CDE9018523464A4619465046FFF770
:101AC000F9FE641CA4B2BC42F2D3BDE8FE8F0096BE
:101AD000CDE90185234619465046FFF7EBFE0096F7
:101AE000CDE9018552463B4621461046FFF7E2FE0E
:101AF0000096CDE901854A46234639461046FFF750
:101B0000D9FE0096CDE901853B4652461946484626
:101B1000FFF7D0FED9E700000001002044656275A0
:101B200067203A20496E7075742065786365656436
:101B30007320746865206E6F726D616C20646973C8
:101B4000706C61792072616E67650D0A000000009B
:101B50002DE9F05F1D46904606468A46DDF828B01E
:101B6000B9E07F294FF0000056D8AA884EE05323F1
:101B70002C68434314F813308B4246D15321484319
:101B8000022101EB400004EB0009002739E00024AA
:101B90002EE000BFABF57F40FF384FEAE47004EB66
:101BA000507020F00700A4EB000299F800104FF0ED
:101BB000800020FA02F001EA000101D009B907E033
:101BC00071B10AEB070081B2301980B20B9A05E0BF
:101BD0000AEB070081B2301980B25A4600F004F9CE
:101BE000404804EA0001072901D109F10109641CF8
:101BF0002889A042CEDC287A400701D009F10109EA
:101C00007F1C6889B842C2DC02E0401C8242AEDC24
:101C100008F10108E8885DE00127AA8855E0532310
:101C20002C68434314F813C08C454DD107EB430394
:101C3000E45C98F801309C4246D15321484302218C
:101C40002A6801EB400002EB0009002738E000247D
:101C50002DE000BFABF57F40FF384FEAE47004EBA6
:101C6000507020F00700A4EB000299F800104FF02C
:101C7000800020FA02F001EA000101D009B907E072
:101C800071B10AEB070081B2301980B20B9A05E0FE
:101C90000AEB070081B2301980B25A4600F0A4F86E
:101CA00010482040072801D109F10109641C288946
:101CB000A042CFDC287A400701D009F101097F1C3E
:101CC0006889B842C3DC02E0401C8242A7DC288954
:101CD00008F10208064498F8001000297FF441AF8B
:101CE000BDE8F09F070000802DE9FC5F80461B489F
:101CF00089460D468188DDF834B01E4617464446B5
:101D0000A14203D3C1888246A94222D2BDE8FC5F2A
:101D1000134800F057BBB088BAF804300119504698
:101D2000994203D9F188444629448DB2F188C0888C
:101D30002944814201D944464D460C99CDE9001B06
:101D4000334629462046FFF703FCB0887F1C204419
:101D500084B23A78002ADED1BDE8FC9F0001002061
:101D6000D4C300082DE9F0410F4C17460D46064636
:101D700020816181A3816082A182A28A618A0BA0F5
:101D800000F020FB0F2112A000F01CFBE7810020D7
:101D900020822FB1B42F03D0A580E680BDE8F0816A
:101DA000A680E580FAE7000000010020576964740E
:101DB0006842797465203D2025642C204865696758
:101DC000687442797465203D2025640D0A00000086
:101DD000204550445F5749445448202F2038203D27
:101DE0002025640D0A00000030B40446244883888E
:101DF000A3423AD3C3888B4237D3C389E3B15A2B6A
:101E00001CD0B42B20D0B3F5877F36D10B46418947
:101E1000091B491E89B2048A0CB3012C1BD0022C69
:101E200005D0032C29D10489E31A5B1E9BB2448997
:101E3000611A491E89B212E02346ECE70389591A58
:101E4000491E8BB22146E6E703891B1B5B1E4489B2
:101E50009BB2611ADDE70489E31A5B1E9BB2048919
:101E60009C4202D34089884203D230BC05A000F0D6
:101E7000A9BA30BC1846FFF7FCB930BC7047000067
:101E8000000100204465627567203A20457863654B
:101E90006564696E6720646973706C617920626F34
:101EA000756E6461726965730D0A0000704738B51C
:101EB0000B46009204460022802100F008F800281A
:101EC00004D0606D40F020006065032038BD2DE92E
:101ED000F0411D4617460E460446DDF8188035E0F1
:101EE000681C33D02DB1FEF73DFAA0EB0800A842E4
:101EF0002CD32068416821F0E00141606068B0F5B2
:101F0000827F0BD1A068B0F5004F02D0B0F5806F92
:101F100004D12068016821F040010160A06AB0F599
:101F2000005F0AD1206801684DF6FF721140016020
:101F30002068016841F400510160012084F85100DB
:101F4000002084F850000320BDE8F08120688068FC
:101F500036EA000004D00020B842C1D10020F3E7E7
:101F60000120F9E7704710B5FEF702FABDE810400E
:101F7000FEF775BE30B58FB001210804CDE9001021
:101F80000024029402250491CDE907504FF4E0109B
:101F900009906846FEF79EFB00B1FEE70F20CDE9F1
:101FA0000A054FF48060CDE90C4002210AA80E9486
:101FB000FEF78AFA00B1FEE7FEF730FB4FF47A71C4
:101FC000B0FBF1F0FEF737FE0420FEF727FE0022FB
:101FD0001146501EFEF746FA0FB030BD0D4801689D
:101FE00041F00101016041680B4A11404160016804
:101FF0000A4A11400160016821F4802101604168B2
:1020000021F4FE0141604FF41F0181600449C003C7
:1020100008607047001002400000FFF8FFFFF6FE66
:1020200008ED00E0F0B50268164B174C174D4FF065
:102030008047984205D0B84203D0A04201D0A842C0
:1020400003D122F070064A683243984205D0B84264
:1020500003D0A04201D0A84203D122F44074CA6840
:10206000224322F080044A69224302608A68C262E5
:102070000A688262984201D10969016301214161C4
:10208000F0BD0000002C01400004004000080040AA
:1020900010B50123046A8B409C430462036A8A40A2
:1020A0001343036210BD000030B5026A22F0010242
:1020B0000262026A4368846924F073050C682C4349
:1020C00022F002058A682A430A4DA8420BD122F069
:1020D0000805CA6823F440732A434D6922F00402BC
:1020E0001D438B692B4343608461496841630262ED
:1020F00030BD0000002C014030B5026A22F0100211
:102100000262026A436884690D6824F4E64444EA82
:1021100005248D6822F0200242EA05120B4DA842E8
:102120000ED1CD6822F0800242EA05124D6923F4F7
:10213000406343EA85038D6922F0400243EA850348
:102140004360846149688163026230BD002C0140B4
:1021500030B5026A22F480720262036A4268C4697E
:1021600023F4007324F073050C682C438D6843EA54
:1021700005230C4DA8420ED1CD6823F4006343EA39
:1021800005234D6922F4405242EA05128D6923F479
:10219000806342EA05124260C4614968C163036218
:1021A00030BD0000002C014030B5026A22F480529C
:1021B0000262046A4268C3690D6823F4E64343EA95
:1021C00005238D6824F4005444EA0534064DA842E2
:1021D00004D14D6922F4804242EA85124260C36113
:1021E00049680164046230BD002C01402DE9F041D2
:1021F000044600680169E26821F44051114301611D
:102200002169A0680843616908432168CA6841F2EE
:102210000C639A430243CA6020684169A26921F4B1
:102220004071114341614C4920686425322688423F
:102230003CD1FEF709FA00EBC00101EB0010616828
:102240008900B0FBF1F7FEF7FFF900EBC00101EBED
:1022500000106168B0468900B0FBF1F0B0FBF5F00A
:102260006FF01801484307EB800106EB0110B0FB4B
:10227000F5F000F0F006FEF7E7F900EBC00101EB26
:10228000001061688900B0FBF1F0B0FBF5F006EBDF
:102290000016FEF7D9F900EBC00101EB00106168F0
:1022A0008900B0FBF1F7FEF7CFF93BE0FEF7BCF990
:1022B00000EBC00101EB001061688900B0FBF1F791
:1022C000FEF7B2F900EBC00101EB00106168B04607
:1022D0008900B0FBF1F0B0FBF5F06FF01801484356
:1022E00007EB800106EB0110B0FBF5F000F0F00603
:1022F000FEF79AF900EBC00101EB0010616889005C
:10230000B0FBF1F0B0FBF5F006EB0016FEF78CF930
:1023100000EBC00101EB001061688900B0FBF1F730
:10232000FEF782F900EBC00101EB00106168890043
:10233000B0FBF1F0B0FBF5F06FF01801484307EB8C
:10234000800108EB0110B0FBF5F0216800F00F00F0
:1023500030448860BDE8F081003801402DE9F0414B
:10236000984617460E460446069D1DE0681C1BD085
:102370002DB1FDF7F7FFA0EB0800A84214D92068A3
:10238000C16821F4D071C1602068416921F0010168
:102390004161202084F8390084F83A00002084F854
:1023A00038000320BDE8F0812068006836EA0000AC
:1023B00004D00020B842D9D00020F3E70120F9E78B
:1023C000FEE7FEE70FB4054B10B503A9044A0298D7
:1023D00000F018F810BC5DF814FB0000BD250008E3
:1023E0002400002002E008C8121F08C1002AFAD108
:1023F00070477047002001E001C1121F002AFBD185
:10240000704700002DE9FF4F8BB09A460F460546F6
:10241000002606E025280BD052460D9990476D1CEA
:10242000761C28780028F5D10FB03046BDE8F08F33
:102430000024A0460122604900E0044315F8013F52
:10244000203B02FA03F00842F7D128782E2817D152
:1024500015F8010F44F004042A280ED06FF02F0263
:102460002878A0F1300109290AD808EB880102EB8D
:10247000410100EB01086D1CF2E757F8048B6D1C5D
:10248000287869283ED006DC0028CDD063280BD000
:10249000642804D136E0732810D075284BD05246FA
:1024A0000D999047761C85E017F8040B8DF8000015
:1024B00000208DF80100E946012003E057F8049B55
:1024C0004FF0FF3061074FF0000401D40AE0641CB4
:1024D00044450DDA8442FADB19F804100029F6D1DC
:1024E00006E0641C8442FCDB19F804100029F8D1D2
:1024F000264404E019F8010B52460D999047641EDA
:10250000F8D257E001CF4FF00A0B002802DA404220
:102510002D2102E0210504D52B218DF82410012165
:1025200003E0E10705D02021F7E70DF1200908912C
:102530000CE00021F9E701CF4FF00A0BF9E759460B
:10254000FDF7F0FD01F1300209F8012D0028F6D168
:10255000ADEB090000F1200B600701D44FF001083A
:10256000D84502DDA8EB0B0000E0002080460024E7
:1025700006E009A85246005D0D999047641C761C40
:1025800008988442F5DB04E0302052460D999047CC
:10259000761CB8F10001A8F10108F5DC05E019F896
:1025A000010B52460D999047761CBBF10001ABF12F
:1025B000010BF4DC6D1C34E70928010013B54FF65C
:1025C000FF73012269460248FEF7A2FC00981CBD79
:1025D000800000200EB5FDF7D3FEFFF7CBFCFEF721
:1025E000BFFEFEF709FFFEF779FFFEF733FF042178
:1025F0003948FEF717FC4FF4FA70FEF707FEFEF7B6
:10260000FBFC0020FEF7E2FC4FF6FF74234600229D
:102610005021A020FFF7A6FB2046FEF797FF4FF6BC
:10262000F0710F20CDE9000100212C4B2CA20846AF
:10263000FFF75AFB61101F20CDE90001274B29A2AB
:1026400017210020FFF750FB4FF47846CDE90046F4
:10265000254B26A22A211420FFF77AFA022400250E
:102660000096CDE90154282364220A214620FFF771
:10267000FFF94FF61F060096CDE901542823642286
:102680000A214620FFF716F90096CDE901542823C8
:1026900046220A216420FFF70DF9CDE900544FF4DA
:1026A000FC63162219215520FEF7CEFF2820034691
:1026B0000090002278211048FFF7D4F84FF4FA6018
:1026C000FDF75AFD502000220090A02311460B4830
:1026D000FFF7C8F8FEE70000C0000020100000204F
:1026E000313233004142430018000020CEA2D1A96C
:1026F000B5E7D7D30000000052530008D25F0008AE
:1027000000000000000000000102030406070809A1
:1027100000000000010203040000000000000000AF
:1027200000000000000000000000000000000000A9
:102730000000000000000000000000000000000099
:102740000000000000000000000000000000000089
:102750000000000000000000000000000000000079
:1027600000000000000003800003800003800003DD
:10277000800003800003800003800003800003804A
:1027800000010000010000000000000000038000C4
:1027900003800000000000000000000000000000B6
:1027A0000000000000000000000000000000000029
:1027B000000E70000E70000E700004200004200057
:1027C00004200004200000000000000000000000C1
:1027D00000000000000000000000000000000000F9
:1027E00000000000000000000000000000000000E9
:1027F00000000000000006600006600006600006A1
:1028000060000660003FF8003FF8000660000CC062
:10281000003FF8003FF8000CC0000CC0000CC000E6
:102820000CC0000CC0000000000000000000000010
:102830000000000000000000000000018000018096
:102840000007B0000FF0001870001870001C0000A6
:102850000F800007E00000F0001830001C30001C62
:1028600070001FE0001BC00001800001800001809B
:1028700000018000000000000000000000000000D7
:102880000000000000000780000FC0001CE00018DE
:1028900060001860001CE0000FF80007E0001FF067
:1028A0000007380006180006180007380003F0007B
:1028B00001E0000000000000000000000000000037
:1028C0000000000000000000000000000000000008
:1028D0000000000003F00007F0000C60000C000096
:1028E0000C00000600000700000F9C001DFC0018F3
:1028F000F0001870000FFC0007DC00000000000072
:1029000000000000000000000000000000000000C7
:1029100000000000000000000003800003800003AE
:102920008000010000010000010000010000000023
:102930000000000000000000000000000000000097
:102940000000000000000000000000000000000087
:10295000000000000000000000000000000000185F
:102960000000380000700000F00000E00000E0000F
:1029700001C00001C00001C00001C00001C0000191
:10298000C00000E00000E0000070000070000038AF
:10299000000018000000000000000000000000001F
:1029A0000000000000001800001C00000E00000ED7
:1029B0000000070000070000038000038000038080
:1029C0000003800003800003800007000007000070
:1029D0000F00000E00001C000018000000000000A6
:1029E0000000000000000000000000000000018066
:1029F000000180000180001DB8001FF80007E00002
:102A000003C00003C0000660000660000000000074
:102A100000000000000000000000000000000000B6
:102A200000000000000000000000000000000000A6
:102A30000000000000000000000000000180000114
:102A400080000180000180000180003FFC003FFC0D
:102A500000018000018000018000018000018000F1
:102A60000000000000000000000000000000000066
:102A70000000000000000000000000000000000056
:102A80000000000000000000000000000000000046
:102A90000000000000000000000000000000000036
:102AA000000000E00000C00001C0000180000180C3
:102AB0000003000003000000000000000000000010
:102AC0000000000000000000000000000000000006
:102AD00000000000000000000000001FF8001FF8C8
:102AE00000000000000000000000000000000000E6
:102AF00000000000000000000000000000000000D6
:102B000000000000000000000000000000000000C5
:102B100000000000000000000000000000000000B5
:102B200000000000000000000000000000000000A5
:102B3000000003C00003C00003C00000000000004C
:102B40000000000000000000000000000000000085
:102B5000001800001800003800003000007000006D
:102B6000600000600000C00000C000018000018023
:102B7000000300000300000600000600000E000035
:102B80000C00001C000018000018000000000000ED
:102B9000000000000000000000000000000003C072
:102BA0000007E0000C30000C300018180018180066
:102BB0001818001818001818001818001818000C19
:102BC00030000C300007E00003C0000000000000EF
:102BD00000000000000000000000000000000000F5
:102BE0000000000000000080000780001F80001D22
:102BF00080000180000180000180000180000180D0
:102C0000000180000180000180000180001FF800A9
:102C10001FF800000000000000000000000000009D
:102C2000000000000000000000000000000007C0DD
:102C3000001FF00038300030180030180000180075
:102C400000300000600001C0000380000600000C9E
:102C500000001800003FF8003FF8000000000000EE
:102C60000000000000000000000000000000000064
:102C700000000000000003C0000FE0000C70000026
:102C8000300000300000600003C00003E00000706E
:102C9000000018000018000018001838001FF0008D
:102CA0000FC0000000000000000000000000000055
:102CB000000000000000000000000000000000E034
:102CC0000001E00001E00003600006600006600013
:102CD0000C60000C60001860003060003FF8003F9E
:102CE000F80000600003F80003F800000000000096
:102CF00000000000000000000000000000000000D4
:102D00000000000000001FF0001FF0001800001875
:102D100000001800001BC0001FF0001C300000184D
:102D2000000018000018000018003030003FF000CC
:102D30000FC00000000000000000000000000000C4
:102D4000000000000000000000000000000000F88B
:102D50000003F8000700000E00000C00001800003F
:102D60001BC0001FF0001C300018180018180018B5
:102D700018000C38000FF00003E000000000000015
:102D80000000000000000000000000000000000043
:102D90000000000000001FF8001FF80018180018BD
:102DA000380000300000300000700000600000605B
:102DB0000000E00000C00000C00001C00001800071
:102DC0000180000000000000000000000000000082
:102DD000000000000000000000000000000007E00C
:102DE000000FF0001C38001818001818000C3000F4
:102DF00007E00007E0000C30001818001818001851
:102E000018001C38000FF00007E000000000000070
:102E100000000000000000000000000000000000B2
:102E200000000000000007C0000FF0001C30001878
:102E300018001818001818000C38000FF80003D8F4
:102E40000000180000300000700000E0001FC0000B
:102E50001F00000000000000000000000000000053
:102E60000000000000000000000000000000000062
:102E70000000000000000000000003C00003C000CC
:102E800003C000000000000000000000000000007F
:102E9000000003C00003C00003C0000000000000E9
:102EA0000000000000000000000000000000000022
:102EB0000000000000000000000000000000000012
:102EC000000000F00000F00000F000000000000032
:102ED0000000000000000000E00001C000018000D0
:102EE000018000030000020000000000000000005C
:102EF00000000000000000000000000000000000D2
:102F000000000000001C00003C0000F00003C000B6
:102F10000F00003C0000F000003C00000F00000328
:102F2000C00000F000003C00001C00000000000099
:102F30000000000000000000000000000000000091
:102F40000000000000000000000000000000000081
:102F500000000000007FFC007FFC0000000000007B
:102F6000007FFC007FFC000000000000000000006B
:102F70000000000000000000000000000000000051
:102F80000000000000000000000000000000000041
:102F9000000000007000007800001E0000078000A4
:102FA00001E000007800001E0000780001E000074A
:102FB00080001E000078000070000000000000008B
:102FC0000000000000000000000000000000000001
:102FD00000000000000000000007C0000FE0001823
:102FE000700018300018300000700000E00003C0CE
:102FF0000003800003000000000000000007000044
:1030000007000000000000000000000000000000B9
:10301000000000000000000000000000000003E0CD
:103020000007F0000E38000C180018780018F8009F
:1030300019D80019980019980019980018F8001864
:1030400078001800000C00000E180007F80003E0DC
:103050000000000000000000000000000000000070
:103060000000000000000000001F80001FC00001E1
:10307000C0000360000360000630000630000C3022
:10308000000FF8001FF800180C00300C00FC7F0047
:10309000FC7F0000000000000000000000000000B5
:1030A0000000000000000000000000000000000020
:1030B000007FE0007FF00018380018180018180092
:1030C0001838001FF0001FF800181C00180C00181A
:1030D0000C00180C007FF8007FF0000000000000DA
:1030E00000000000000000000000000000000000E0
:1030F00000000000000000000003EC000FFC001CBA
:103100001C00180C00300C003000003000003000B3
:1031100000300000300000180C001C1C000FF800EC
:1031200003F00000000000000000000000000000AC
:10313000000000000000000000000000000000008F
:10314000007FC0007FF000183800181800180C002D
:10315000180C00180C00180C00180C00180C0018A3
:1031600018001838007FF0007FE000000000000029
:10317000000000000000000000000000000000004F
:103180000000000000000000007FF8007FF8001839
:1031900018001818001998001980001F80001F805F
:1031A000001980001998001818001818007FF800FE
:1031B0007FF8000000000000000000000000000098
:1031C00000000000000000000000000000000000FF
:1031D000003FFC003FFC000C0C000C0C000CCC0071
:1031E0000CC0000FC0000FC0000CC0000CC0000CD1
:1031F00000000C00003FC0003FC0000000000000C5
:1032000000000000000000000000000000000000BE
:1032100000000000000000000003EC000FFC001C98
:103220001C00180C00300C0030000030000030FE94
:103230000030FE00300C00380C001C1C000FFC009D
:1032400003F000000000000000000000000000008B
:10325000000000000000000000000000000000006E
:10326000007E7E007E7E00181800181800181800D6
:103270001818001FF8001FF8001818001818001878
:1032800018001818007E7E007E7E000000000000FE
:10329000000000000000000000000000000000002E
:1032A0000000000000000000001FF8001FF80001EF
:1032B0008000018000018000018000018000018009
:1032C000000180000180000180000180001FF800E3
:1032D0001FF80000000000000000000000000000D7
:1032E00000000000000000000000000000000000DE
:1032F0000007FE0007FE0000300000300000300034
:10330000003000003000303000303000303000300D
:1033100030003060003FE0000F800000000000003F
:10332000000000000000000000000000000000009D
:103330000000000000000000007F3E007F3E0018FB
:10334000300018600018C0001980001B80001FC0EA
:10335000001CE0001870001830001838007F1F00B3
:103360007F1F0000000000000000000000000000BF
:10337000000000000000000000000000000000004D
:10338000007F80007F80000C00000C00000C00001B
:103390000C00000C00000C00000C0C000C0C000CCD
:1033A0000C000C0C007FFC007FFC00000000000003
:1033B000000000000000000000000000000000000D
:1033C000000000000000000000F00F00F81F0038AF
:1033D0001C003C3C003C3C00366C00366C0033CC9E
:1033E0000033CC00318C00300C00300C00FE7F002C
:1033F000FE7F000000000000000000000000000050
:1034000000000000000000000000000000000000BC
:103410000078FE0078FE001C18001E18001F18001F
:103420001B18001B980019D80018D80018F80018AD
:1034300078001838007F18007F1800000000000096
:10344000000000000000000000000000000000007C
:1034500000000000000000000003C0000FF0001C8E
:103460003800181800381C00300C00300C00300CEC
:1034700000300C00381C001818001C38000FF00039
:1034800003C0000000000000000000000000000079
:10349000000000000000000000000000000000002C
:1034A000003FF0003FF8000C1C000C0C000C0C005E
:1034B0000C0C000C18000FF8000FE0000C00000CC2
:1034C00000000C00003FC0003FC0000000000000F2
:1034D00000000000000000000000000000000000EC
:1034E00000000000000000000003C0000FF0001CFE
:1034F0003800181800381C00300C00300C00300C5C
:1035000000300C00381C001818001C38000FF000A8
:1035100007C00007CC000FFC000C380000000000C2
:10352000000000000000000000000000000000009B
:10353000007FE0007FF0001838001818001818000D
:103540001838001FF0001FC00018E00018700018A5
:1035500030001838007F1E007F0E000000000000C1
:10356000000000000000000000000000000000005B
:1035700000000000000000000007D8000FF8001C49
:1035800038001818001818001E00000FC00003F0C3
:10359000000078001818001818001C38001FF000F0
:1035A0001BE0000000000000000000000000000020
:1035B000000000000000000000000000000000000B
:1035C000003FFC003FFC00318C00318C00318C004E
:1035D000318C000180000180000180000180000129
:1035E00080000180000FF0000FF0000000000000DC
:1035F00000000000000000000000000000000000CB
:103600000000000000000000007E7E007E7E0018AA
:1036100018001818001818001818001818001818A2
:10362000001818001818001818000C30000FF000CF
:1036300003C00000000000000000000000000000C7
:10364000000000000000000000000000000000007A
:10365000007F7F007F7F00180C000C18000C180002
:103660000C18000630000630000360000360000301
:10367000600001C00001C0000080000000000000E8
:10368000000000000000000000000000000000003A
:10369000000000000000000000FE3F80FE3F803080
:1036A000060030060030860019CC0019CC001B6CD7
:1036B000001B6C001E7C000E38000E38000C180039
:1036C0000C180000000000000000000000000000D6
:1036D00000000000000000000000000000000000EA
:1036E000007E7E007E7E001818000C300006600010
:1036F00003C00001800001800003C0000660000CD0
:1037000030001818007E7E007E7E00000000000061
:1037100000000000000000000000000000000000A9
:103720000000000000000000007C7E007C7E00188D
:1037300018000C300006600006600003C000018025
:10374000000180000180000180000180000FF00076
:103750000FF000000000000000000000000000006A
:103760000000000000000000000000000000000059
:10377000001FF8001FF8001818001830001860002B
:1037800018C0000180000300000618000C18001883
:1037900018003018003FF8003FF80000000000005B
:1037A0000000000000000000000000000000000019
:1037B00000000000000001F00001F00001800001A5
:1037C00080000180000180000180000180000180F4
:1037D0000001800001800001800001800001800064
:1037E00001800001800001F00001F00000000000F5
:1037F00000000000000000001800001800001C007D
:10380000000C00000E00000600000600000300008F
:1038100003000001800001800000C00000C0000023
:1038200060000060000070000030000038000018E8
:103830000000180000000000000000000000000070
:103840000000000000000F80000F800001800001D8
:103850008000018000018000018000018000018063
:1038600000018000018000018000018000018000D3
:103870000180000180000F80000F80000000000028
:10388000000000000000000000000000800001C0F7
:103890000003E0000770000630000C1800180C0050
:1038A0001004000000000000000000000000000004
:1038B0000000000000000000000000000000000008
:1038C00000000000000000000000000000000000F8
:1038D00000000000000000000000000000000000E8
:1038E00000000000000000000000000000000000D8
:1038F00000000000000000000000000000000000C8
:1039000000000000000000000000000000000000B7
:103910000000FFFF00FFFF00000000030000038025
:103920000000E00000600000000000000000000057
:103930000000000000000000000000000000000087
:103940000000000000000000000000000000000077
:103950000000000000000000000000000000000067
:103960000000000000000000000000000000000057
:1039700000000FC0001FE00000300000300007F022
:10398000001FF0003830003030003070001FFC00A5
:103990000FBC00000000000000000000000000005C
:1039A000000000000000000000000000000078009F
:1039B000007800001800001800001BE0001FF8004D
:1039C0001C1800180C00180C00180C00180C00181B
:1039D0000C001C18007FF8007BE0000000000000D5
:1039E00000000000000000000000000000000000D7
:1039F00000000000000000000000000000000000C7
:103A0000000003EC000FFC001C1C00380C00300C04
:103A100000300000300000380C001C1C000FF800C3
:103A200003F00000000000000000000000000000A3
:103A3000000000000000000000000000000000780E
:103A40000000780000180000180007D8001FF800D8
:103A500018380030180030180030180030180030C6
:103A600018001838001FFE0007DE000000000000EC
:103A70000000000000000000000000000000000046
:103A80000000000000000000000000000000000036
:103A9000000007E0001FF800181800300C003FFC81
:103AA000003FFC00300000300000180C001FFC003C
:103AB00007F000000000000000000000000000000F
:103AC000000000000000000000000000000001FCF9
:103AD0000003FC000600000600003FF8003FF8006D
:103AE00006000006000006000006000006000006B2
:103AF00000000600003FF0003FF000000000000062
:103B000000000000000000000000000000000000B5
:103B100000000000000000000000000000000000A5
:103B2000000007DE001FFE001838003018003018B3
:103B3000003018003018003018001838001FF80046
:103B400007D8000018000018000038000FF0000F20
:103B5000C00000000000000000000000000078002D
:103B6000007800001800001800001BE0001FF000A3
:103B70001C38001818001818001818001818001819
:103B800018001818007E7E007E7E000000000000F5
:103B90000000000000000000000000000000000025
:103BA0000000000000000180000180000000000013
:103BB00000001F80001F8000018000018000018044
:103BC000000180000180000180000180003FFC00B6
:103BD0003FFC0000000000000000000000000000AA
:103BE000000000000000000000000000000000C015
:103BF0000000C0000000000000001FF0001FF000E7
:103C000000300000300000300000300000300000C4
:103C10003000003000003000003000003000003084
:103C2000000070001FE0001F800000000000000086
:103C30000000000000003C00003C00000C00000CF4
:103C400000000CF8000CF8000CC0000D80000F8084
:103C5000000F00000F80000DC0000CE0003C7C0055
:103C60003C7C00000000000000000000000000009C
:103C700000000000000000000000000000001F80A5
:103C8000001F800001800001800001800001800091
:103C9000018000018000018000018000018000019E
:103CA00080000180003FFC003FFC0000000000009D
:103CB0000000000000000000000000000000000004
:103CC00000000000000000000000000000000000F4
:103CD0000000F77800FFFC0039CC00318C00318CFB
:103CE00000318C00318C00318C00318C00FDEF00F4
:103CF000FDEF0000000000000000000000000000D8
:103D000000000000000000000000000000000000B3
:103D1000000000000000000000007BE0007FF000D9
:103D20001C38001818001818001818001818001867
:103D300018001818007E7E007E7E00000000000043
:103D40000000000000000000000000000000000073
:103D50000000000000000000000000000000000063
:103D6000000003C0000FF0001C3800381C00300CAD
:103D700000300C00300C00381C001C38000FF00024
:103D800003C0000000000000000000000000000070
:103D90000000000000000000000000000000000023
:103DA000000000000000000000007BE0007FF80041
:103DB0001C1800180C00180C00180C00180C001827
:103DC0000C001C18001FF8001BE000180000180071
:103DD000001800007F00007F0000000000000000CD
:103DE00000000000000000000000000000000000D3
:103DF000000007DE001FFE001838003018003018E1
:103E0000003018003018003018001838001FF80073
:103E100007D80000180000180000180000FE00007D
:103E2000FE00000000000000000000000000000094
:103E3000000000000000000000003E78003EFC0092
:103E400007CC000700000600000600000600000680
:103E500000000600003FF0003FF0000000000000FE
:103E60000000000000000000000000000000000052
:103E70000000000000000000000000000000000042
:103E8000000007F8000FF8001818001818001F802D
:103E9000000FF00000F8001818001838001FF0009C
:103EA0001FE0000000000000000000000000000013
:103EB00000000000000000000000000000000C00F6
:103EC000000C00000C00000C00003FF0003FF00070
:103ED0000C00000C00000C00000C00000C00000C9A
:103EE00000000C1C0007FC0003F0000000000000B4
:103EF00000000000000000000000000000000000C2
:103F000000000000000000000000000000000000B1
:103F10000000787800787800181800181800181831
:103F2000001818001818001818001838000FFE00A4
:103F300007DE00000000000000000000000000009C
:103F40000000000000000000000000000000000071
:103F5000000000000000000000007C3E007C3E00ED
:103F60001818001818000C30000C3000066000060D
:103F7000600007E00003C00003C000000000000074
:103F80000000000000000000000000000000000031
:103F90000000000000000000000000000000000021
:103FA0000000783C00783C003118003398003398CA
:103FB000001AB0001EF0001EF0001C60000C600033
:103FC0000C60000000000000000000000000000085
:103FD00000000000000000000000000000000000E1
:103FE000000000000000000000003E7C003E7C005D
:103FF0000C300006600003C00001800003C0000612
:1040000060000C30003E7C003E7C000000000000A0
:1040100000000000000000000000000000000000A0
:104020000000000000000000000000000000000090
:1040300000007E1F007E1F00180C000C18000C18DA
:104040000006300006300003600003E00001C000FD
:1040500000C0000180000180000300003FC0003F5D
:10406000C000000000000000000000000000000090
:10407000000000000000000000001FF8001FF80012
:1040800018300018600000C0000180000300000626
:1040900018000C18001FF8001FF8000000000000B6
:1040A0000000000000000000000000000000000010
:1040B00000000000000000E00001E00001800001BD
:1040C00080000180000180000180000180000380E9
:1040D00000070000038000018000018000018000D3
:1040E00001800001800001E00000E000000000000D
:1040F000000000000000000000000000000001803F
:10410000000180000180000180000180000180002A
:104110000180000180000180000180000180000119
:10412000800001800001800001800001800001808A
:1041300000018000000000000000000000000000FE
:10414000000000000000070000078000018000015F
:10415000800001800001800001800001800001C01A
:104160000000E00001C0000180000180000180002B
:1041700001800001800007800007000000000000AF
:10418000000000000000000000000000000000002F
:10419000000000000000000000000000000000001F
:1041A0000E00001F18003BB80031F00000E00000D6
:1041B00000000000000000000000000000000000FF
:1041C00000000000000000000000000000000000EF
:1041D000C4E3000000000000000000000000000038
:1041E000000000000000000000000000000001C10D
:1041F000C00001E3E00003E3C00003C7800003C781
:10420000FFFF078FFFFF078F000F0F1E001E0F3CE1
:104210001E1E1F3C1E3E1F181E3C3F001E1C7F0022
:104220001E007F079E70FF079EF0EF0F9E786F0FB6
:104230001E780F0F1E3C0F1E1E3C0F1E1E1E0F3C35
:104240001E1E0F3C1E1F0F7C1E0F0F781E0E0F0030
:104250001E000F001E000F003C000F07FC000F07A0
:10426000F800000000000000000000000000000056
:10427000000000000000BAC30000000000000000C1
:10428000000000000000000000000000000000002E
:104290000F0000000F0000000F07FFFE0F07FFFEDA
:1042A0000F00003E1E0000FCFFF801F0FFF803E0E5
:1042B0001E7807C01E780F803C780F003C780F00F6
:1042C0003C780F003C780F003C7FFFFF78FFFFFF3A
:1042D00078F00F0078F00F003DE00F001FE00F00B6
:1042E0000FE00F0007C00F0007E00F0007F00F00FE
:1042F0000FF80F001E7C0F003C380F0078000F00F5
:10430000F003FF006001FE0000000000000000005C
:10431000000000000000000000000000CEA200002D
:10432000000000000000000000000000000000008D
:10433000000000000000030701E0078701E0070715
:1043400001C00FF779C01EF77BC01EF77B803CF7DA
:104350007BFF78F77BFFF8F77F9EF7FFFF9E67FFF5
:10436000FF9E07007F9C0F000F9C1E001F9C1E7F5E
:10437000FFBC3E7FF3FC3E0003FC7E0001F8FE0024
:1043800001F8FE7FE1F8DE7FE1F81E78E0F01E78AC
:10439000EEF01E78FFF01E78FDF81E79FBFC1EF192
:1043A000F7BC1EF0EF9E1FE00F0F1EC01E0F1E0079
:1043B0000C070000000000000000000000000000EA
:1043C0000000C8ED00000000000000000000000038
:1043D000000000000000000003C0780007807800A3
:1043E000078078000780F0000F00F000FFFFFFFF5C
:1043F000FFFFFFFF1E03C01F1E03C01E1FE78F3EEF
:104400003DE78F3C3DEF0F7C3DE70F7879E00F00F3
:1044100079E00E007FFE0E007FFE1F0001E01F000E
:1044200001E01F0001E01F8001E01F8001E03F80EC
:1044300001FF3FC00FFF7BC0FFF079E0F9E0F1F032
:1044400001E1F0F001E3E0F801E7C07C01FF803F0B
:1044500001FF001F01EC000E000000000000000042
:104460000000000000000000D1C5000000000000B6
:10447000000000000000000000000000000000003C
:104480000000000077000000FF007FFCF7807FFD48
:10449000E3C001C1E3C001C3C1803DC7FFFF39C70D
:1044A000FFFF39CF838079DF838079FF838079DFD5
:1044B000838071C383807FFFFFFE7FFFFFFE03C306
:1044C000838007C3838007C383800FC383800FC3A8
:1044D00083801FC3FFFE1DC3FFFE3DC3838079C3DE
:1044E0008380F1C38380F1C3838061C3838001C370
:1044F000FFFF03C3FFFF1FC380001F838000000076
:104500000000000000000000000000000000BADA17
:10451000000000000000000000000000000000009B
:10452000000000000000000000000000000000008B
:104530001FFFFFFC1FFFFFFC1E03C03C1EC3C73C48
:104540001FE3C7BC1EF3CF3C1EFBDF3C1E7BDE3CE3
:104550001E33DC3C1E03C03C1FFFFFFC1FFFFFFCA3
:104560001E03C03C0003C0000003C0003FFFFFFC6F
:104570003FFFFFFC0003C0000003C0000003C000B9
:10458000FFFFFFFFFFFFFFFF000000001C387070FF
:104590003E78F8F83C7C787C7C3C3C3EF83E3C1F06
:1045A000F01C180E000000000000000000000000D9
:1045B00000000000B4CB000000000000000000007C
:1045C00000000000000000000000000000000000EB
:1045D000000000783C0000783C0000783C00007847
:1045E0003C0000783C0000783C0C3C783C1E3C7859
:1045F0003C3F3C783CF83C7FFDF03C7FFFE03C7862
:104600003F803C783E003C783C003C783C003C7865
:104610003C003C783C003C783C003C783C003C78DA
:104620003C0E3C783C0F3C783C0F3C79FC0F3C7FC7
:10463000FC0F3FFF3C0F3FF03E1EFF001FFEF0004F
:104640000FFC00000000000000000000000000005F
:1046500000000000000000000000D7D600000000AD
:10466000000000000000000000000000000000004A
:1046700000038000000780000003C0000003E0008A
:104680000001E0007FFFFFFE7FFFFFFE7800001EBD
:104690007800001E7800001E7800001E7BFFFFDE01
:1046A00003FFFFC000000FC000003F0000007E00BD
:1046B0000001F8000001E0000001E000FFFFFFFF43
:1046C000FFFFFFFF0001E0000001E0000001E0004B
:1046D0000001E0000001E0000001E0000003E00054
:1046E0000003C00000FFC00000FF800000000000C9
:1046F00000000000000000000000000000000000BA
:10470000CCE50000000000000000000000000000F8
:10471000000000000000000000000000000003C0D6
:104720003C0003C03C0003C03C0007803C00078005
:104730003C0007803C000FFFFFFF0FFFFFFF1F0142
:10474000FE001F01FF003F01FF003F03FF007F034A
:10475000FF807F07BF80FF07BFC0EF0F3DC0CF0FB7
:104760003DE00F1E3DE00F1E3CF00F3C3C780F7CFF
:104770003C7C0FF83C3E0FF7FFDF0FE7FFCF0FC089
:104780003C060F003C000F003C000F003C000F00F7
:104790003C000F003C000000000000000000000092
:1047A000000000000000CFC2000000000000000078
:1047B00000000000000000000000000000000000F9
:1047C0000000000000000000FFFFFFFFFFFFFFFFF1
:1047D000000F8000000F8000000F8000000F80009D
:1047E000000F8000000F8000000FE000000FF800B5
:1047F000000FFC00000FBF00000F9F80000F87E03C
:10480000000F83F0000F80F8000F807C000F8038CD
:10481000000F8000000F8000000F8000000F80005C
:10482000000F8000000F8000000F8000000F80004C
:10483000000F8000000F800000000000000000005A
:10484000000000000000000000000000B6D40000DE
:104850000000000000000000000000000000000058
:1048600000000000000000000000000000780000D0
:104870000078000000787FFC00787FFC0078003C26
:104880000078003FFFFF303FFFFF783C00783C3866
:1048900000783E7800781E78C0780F79E0780FF0C5
:1048A000F07807F0F87803F0787801E03C7803F0CE
:1048B0003E7803F0187807F8007807FC00780F3E80
:1048C00000781F1E00783E1F00787C0E00F8F8006C
:1048D00000F0F0003FF060003FE00000000000004A
:1048E00000000000000000000000000000000000C8
:1048F0000000D3A60000000000000000000000003F
:1049000000000000000000000001C0000003E00003
:104910000001E0000001F0000000F0001FFFFFFFB9
:104920001FFFFFFF1E0000001E0000001E01E078B8
:104930001E01E0781EE1E0781FF1F0F81EF0F0F0C3
:104940001EF0F0F01EF8F0F01E78F1F01E78F9E09D
:104950001E7879E01E7C7BE01E3C7BC01E3C7BC049
:104960001E3C7BC03C3E07803C1C07803C0007800F
:104970003C000F0078000F007BFFFFFFF3FFFFFFFD
:10498000F0000000600000000000000000000000D7
:104990000000000000000000B5C40000000000009E
:1049A0000000000000000000000000000000000007
:1049B000000003803C0007C03E0007803C000780E9
:1049C0007C000F0078007FFE7FFE7FFEFFFE781EDA
:1049D000F01E781FE01E781FE01E781FC01E781F93
:1049E000C01E781FF01E781EF81E781E7C1E7FFEEB
:1049F0003C1E7FFE1E1E781E1F1E781E0F9E781EF8
:104A0000079E781E071E781E001E781E001E781E48
:104A1000003E781E003C781E003C7FFE003C7FFE7E
:104A2000007C781E3FF8781E3FF000000000000078
:104A30000000000000000000000000000000B5E3DE
:104A40000000000000000000000000000000000066
:104A500000000000000000000003C0000003C000D0
:104A60000003C0000003C0000003FFFF0003FFFFBE
:104A70000003C0000003C0000003C0000003C0002A
:104A80000FFFFFF80FFFFFF80F0000780F0000780E
:104A90000F0000780F0000780F0000780F000078FA
:104AA0000FFFFFF80FFFFFF80F0000780000000075
:104AB0000C3838301E7C78783E3C78783C3C3C3C66
:104AC0007C3E3C3EF81E3C1EF01E1E1F701E1C0E3F
:104AD00000000000000000000000000000000000D6
:104AE00000000000D5F300000000000000000000FE
:104AF00000000000000000000000000000000000B6
:104B00003C00000078007FF078007FF0780079FFAB
:104B1000FFFF79FFFFFF79E1E00079E1E0007BC171
:104B2000EF807BC3CF807BC3CF807F87CF807F87A1
:104B30008F807F878F807BCF0F807BCFFFFE79EFC9
:104B4000FFFE79E00F8078E00F8078F00F8078F03A
:104B50000F8078F00F8078FFFFFF79FFFFFF7FE085
:104B60000F807FC00F8078000F8078000F80780062
:104B70000F8078000F8078000F8000000000000098
:104B800000000000000000000000CEAA00000000AD
:104B90000000000000000000000000000000000015
:104BA0000000000000000000000780000E078000E9
:104BB0001F0780000F87800007C7800001E7800083
:104BC00000C78000000780007FFFFFFC7FFFFFFC25
:104BD0000007803C000F803C000F003C000F003CB1
:104BE000000F603C001FF03C001E783C003E3C3C47
:104BF000003C3E3C007C1F3C00780F3C00F8063C2B
:104C000001F0003C03E0007C07C0007C0F800078CE
:104C10001F0000F83E00FFF07C00FFE038000000BD
:104C20000000000000000000000000000000000084
:104C3000CAF70000000000000000000000000000B3
:104C400000000000000000000000000000000F0055
:104C500000380F0000380F0000380F3FF8380F3FC2
:104C6000F8380F007838FFE07FFFFFE07FFF0F008C
:104C700070380F18F0381F3CF0381F1CFE381FDE4C
:104C8000FE383FEFEF383FFFEF383FF7E7B87F6779
:104C9000C7B87F03C3B8FF07E038EF07E038EF0F6E
:104CA000F038CF1FF0380F1E78380F3C7C380F7863
:104CB0003C380FF838380F6000780F000FF80F00FD
:104CC00007F00F00000000000000000000000000DE
:104CD000000000000000DDAE000000000000000049
:104CE00000000000000000000000000000000000C4
:104CF000003C1E00003C1E00003C1E00FFFFFFFFAA
:104D0000FFFFFFFF003C1E0007BC1E0007800000E5
:104D10000FFFFFFC0FFFFFFC1E0000003C00000027
:104D20003C0000007FFFFFF0F7FFFFF0378380F0CB
:104D30000787C0F00783F0F00700E0F0FFFFFFFFF8
:104D4000FFFFFFFF0F0F00E00F0F81E00E03E1E018
:104D50001E01C1E01FFFFFFE1FFFFFFE000001E07C
:104D6000000003C00000FFC00000FF800000000042
:104D7000000000000000000000000000C5C90000A5
:104D80000000000000000000000000000000000023
:104D9000000000000000000000003800003E7C0021
:104DA0003FFE3F3FFFF01FBFE00007BC0000033C99
:104DB0000000003C003C003C0FFE703DFFF8F83D59
:104DC000FF007C3DE7803F3DE7801F3DE78E0E3DC5
:104DD000E79F003DE7FE0039E7F80039E3F01C39B2
:104DE000E3C01E79E3C01E79E1E01E79E1E03C7981
:104DF000E0F03C79E0F83CF1E07C3CF1E37C7DF1D3
:104E0000EF3F79E1FE1F7BE1F80E7BC3E000798183
:104E1000C0000000000000000000000000000000D2
:104E20000000410000000000000000000000000041
:104E30000000000000000000000000000000000072
:104E400000000000007C000000FC000000FE0000EC
:104E500000FE000001FF000001FF000001EF000064
:104E600003EF800003CF800007C7800007C7C000A2
:104E70000787C0000F83E0000F83E0000F01E00010
:104E80001FFFF0001FFFF0003FFFF8003E00F8009A
:104E90003C00F8007C007C007C007C0078003C003A
:104EA000F8003E00F8003E00000000000000000096
:104EB00000000000000000000000000000000000F2
:104EC0000000000000000000610000000000000081
:104ED00000000000000000000000000000000000D2
:104EE00000000000000000000000000000000000C2
:104EF00000000000000000000000000000000000B2
:104F000000000000000007F800001FFE00003FFE48
:104F100000003E3F0000381F0000000F0000000F9F
:104F2000000003FF00001FFF00003F8F00007C0F08
:104F300000007C0F0000781F00007C1F00007E7FB7
:104F400000007FFF00003FFF00000FCF00000000C7
:104F50000000000000000000000000000000000051
:104F600000000000000000000000000000006200DF
:104F70000000000000000000000000000000000031
:104F80000000000000000000000000003C000000E5
:104F90003C0000003C0000003C0000003C00000021
:104FA0003C0000003C0000003C0000003CFE000013
:104FB0003DFF80003FFFC0003F8FC0003F07E00083
:104FC0003E03E0003E03E0003C01E0003C01E00065
:104FD0003C01E0003C03E0003E03E0003E03E00053
:104FE0003F07C0003F8FC0003FFF80003FFF000031
:104FF0003CFC000000000000000000000000000079
:1050000000000000000000000000000000000000A0
:10501000000000006300000000000000000000002D
:105020000000000000000000000000000000000080
:105030000000000000000000000000000000000070
:105040000000000000000000000000000000000060
:10505000000001FC000007FE00001FFE00003F866C
:1050600000003E0000007C0000007C0000007C008E
:10507000000078000000780000007C0000007C0048
:1050800000007C0000003E0000003F8600001FFE84
:1050900000000FFE000003FC000000000000000004
:1050A0000000000000000000000000000000000000
:1050B00000000000000000000000CEA20000000080
:1050C00000000000000000000000000000000000E0
:1050D00000000000030701E0078701E0070701C0A7
:1050E0000FF779C01EF77BC01EF77B803CF77BFF74
:1050F00078F77BFFF8F77F9EF7FFFF9E67FFFF9E25
:1051000007007F9C0F000F9C1E001F9C1E7FFFBC92
:105110003E7FF3FC3E0003FC7E0001F8FE0001F838
:10512000FE7FE1F8DE7FE1F81E78E0F01E78EEF019
:105130001E78FFF01E78FDF81E79FBFC1EF1F7BC0F
:105140001EF0EF9E1FE00F0F1EC01E0F1E000C076B
:10515000000000000000000000000000000000004F
:10516000D1A90000000000000000000000000000C5
:10517000000000000000000000000000000000002F
:1051800000001FFFFFF81FFFFFF80003C00000032F
:10519000C0007FFFFFFE7FFFFFFE7803C01E780385
:1051A000C01E7FFFFFFE7FFFFFFE0003C000000365
:1051B000C00007FFFFE007FFFFE00003C0000000A2
:1051C00000001FFFFFF81FFFFFF80000007800003D
:1051D00000781FFFFFF81FFFFFF8000000780000B5
:1051E0000078000000783FFFFFF83FFFFFF8000065
:1051F0000078000000000000000000000000000037
:10520000000000000000B5E7000000000000000002
:10521000000000000000000000000000000000008E
:105220000007800000078000000780000007800062
:105230007FFFFFF87FFFFFF8780780F8780780F896
:10524000780780F8780780F8780780F8780780F882
:105250007FFFFFF87FFFFFF8780780F8780780F876
:10526000780780F8780780F8780780F8780780F862
:105270007FFFFFF87FFFFFF87807800E7807800F29
:105280000007800F0007800F0007801F0007801EA7
:105290000003FFFE0001FFFC000000000000000012
:1052A000000000000000000000000000D7D3000054
:1052B00000000000000000000000000000000000EE
:1052C00000000000000000000000000000001FFFC0
:1052D000FFF81FFFFFF8000001F8000007E00000E2
:1052E0000FC000001F8000003E000000FC00000115
:1052F000F8000003E0000003E0000003E000FFFF0F
:10530000FFFFFFFFFFFF0003E0000003E0000003DA
:10531000E0000003E0000003E0000003E000000301
:10532000E0000003E0000003E0000003E0000003F1
:10533000E0000003C00001FFC00000FF800000008B
:10534000000000000000000000000000000000005D
:105350000000FFF7DFE7DFDFDFDFDFE7DFDFDFE7CB
:10536000DFE7DFE7DFE7DFE7DFE7DFE7DFE7DFE70D
:10537000DFE7DFE7DFE7DFE7FFDFFDC6DFDFFFEFC8
:10538000FFF7FFF7FFFFFFFFFFFFFFFFFFFFFFFF3D
:10539000FFFFFFFFFFFFFFFFFFFFFFFFFFFFFFFF1D
:1053A000FFFFFEBE5E453F3D3E455E3D5E3D5E3DD0
:1053B0003E3D5E3D5E3D3E3D3E3D5E3D5E3D3E3D95
:1053C0003E3D5E3D5E3D3E3D5E3D5F3D3E3D1D3DA5
:1053D0001C45B94C9B759FD7FFF7FFFFFFFFFFFFF1
:1053E000FFFFFFFFFFFFFFFFFFFFFFFFFFFFFFFFCD
:1053F000FFFFFEBE7F355E3D5E3D5E3D5E455E4528
:105400005E455E455E455E455E455E455E455E4584
:105410005E455E455E455E455E3D5E3D5E455E4584
:105420005E453E3D5F3D3E451B553FBFFFF7FFFFDD
:10543000FFFFFFFFFFFFFFFFFFFFFFFFFFFFFFFF7C
:10544000FFFF1EB75F3D3D455E455E3D5E455E3DEF
:105450005E455E3D5E3D5E455E455E3D5E3D5E4554
:105460005E455E3D5E3D5E455E455E455E3D5F3D43
:105470005E3D5E455E455E453D3D5D45FA4C7ED7F1
:10548000FFFFFFFFFFFFFFFFFFFFFFFFFFFFFFFF2C
:10549000FFFFFEBE5F3D5E455E455E3D5E3D5E3D9F
:1054A0005E3D5E3D5E3D5E3D5E3D5E3D5E3D5E3D24
:1054B0005E3D5E3D5E3D5E3D5F3D5F3D5E3D5E450A
:1054C0005E455E3D5E3D5E455E455E3D5F3D3D4504
:1054D0005A65FFF7FFFFFFFFFFFFFFFFFFFFFFFF23
:1054E000FFFFFEBE5F3D5E3D5E455E3D3E455E4567
:1054F0005E455E455E455E455E455E455E455E4594
:105500005E455E455E455E455E455E455E455E4583
:105510005E455E455E3D5E3D5E455E3D5E455E458B
:105520003E3DB944FFEFFFFFFFFFFFFFFFFFFFFF1F
:10553000FFFF1EBF5F3D5E455E3D5F3D5E3D5E3DE4
:105540005E3D5E3D5E3D5E3D5E3D5E3D5E3D5E3D83
:105550005E3D5E3D5E3D5E3D5E3D5E3D5F3D5E3D72
:105560005E3D5E45BC653C455E3D5E3D5E3D5E3DEF
:105570005E3D3E3DFA4CFFEFFFFFFFFFFFFFFFFFE9
:10558000FFFF1EBF5F455E3D5E3D5E3D5E3D5E3D95
:105590005E3D5E3D5E3D5E3D5E3D5E3D5E3D5E3D33
:1055A0005E3D5E3D5E3D5E3D5F3D3E455E455E452A
:1055B0003E3D7A6DFFEF1B4D3E455E3D5E3D5E45D7
:1055C0005E3D5E455E45BA44FFF7FFFFFFFFFFFF0C
:1055D000FFFF1EBF5F455E3D5E3D5E3D5E3D5E3D45
:1055E0005E3D5E3D5E3D5E3D5E3D5E3D5E3D5E3DE3
:1055F0005E3D5E3D5E3D5E3D5E455F3D5E455E45BA
:105600001A55FFF7FFEF1B455E455E455E3D5E4563
:105610005E3D3E3D5F3D5F3DBB75FFFFFFFFFFFF12
:10562000FFFF1EBF5F455E3D5E3D5E3D5E3D5E3DF4
:105630005E3D5E3D5E3D5E3D5E3D5E3D5E3D5E3D92
:105640005E3D5E3D5E3D5E3D5E3D5E455E451A5D96
:10565000FFF7FFFFFFEF1C4D5E455E3D5E3D5E4583
:105660005E3D3E3D5E3D5E453E451EBFFFFFFFFF8A
:10567000FFFF1EBF5F455E3D5E3D5E3D5E3D5E3DA4
:105680005E3D5E3D5E3D5E3D5E3D5E3D5E3D5E3D42
:105690005E3D5E3D5E3D5E3D5E3D3E3DFA4CFFEF54
:1056A000FFFFFFFFFFEF1B4D5E455E3D5E3D5E452C
:1056B0005E3D5E455E455E3D5E45FB44FFEFFFFFA0
:1056C000FFFF1EBF5F455E3D5E3D5E3D5E3D5E3D54
:1056D0005E3D5E3D5E3D5E3D5E3D5E3D5E3D5E3DF2
:1056E0005E3D5E3D5E3D5E3D5D451C4DFFEFFFFF57
:1056F000FFFFFFFFFFEF1B4D5E455E3D5E3D5E45DC
:105700005E3D5E3D3F455E3D5E455E45DB85FFFFA0
:10571000FFFF1EBF5E3D5E3D3D453D455D455D4530
:105720003D453E455E3D5E3D5E3D5E453D453D45FC
:105730003E455E455E3D5E3D3E455C555CA6FFFFD9
:10574000FFFFFFFFFFEF1C4D5E455E453D453D45BC
:105750003D455E455E3D5E453E455F3D1B4DFFEF71
:10576000FFFF1EBF5E3D5E3D1E761FAF1FAF1FB722
:10577000FFB6FD7D5E453E455E3D1C451FB71FB72C
:10578000FFA61C455E3D5E455E451C45FFEFFFFFE5
:10579000FFFFFFFFFFE71C455E3DFB44FFDFDFDF50
:1057A000BFC71D3D5E453E3D5F3D5F3D3D453EC73C
:1057B000FFFF1EBF5F3D5F3D3C55FFFFFFFFFFFF4B
:1057C000FFFFFFF73D3D5E3D5E45DEA6FFFFFFFFAD
:1057D000FFF73C555F3D5E3D3E455B65FFFFFFFFCC
:1057E000FFFFFFF75C553D3D5E451D8EFFFFFFFF50
:1057F000FFFF1A5D5E455E3D3E455E3D3D3D1A65DF
:10580000FFF71EBF5E3D5E3D3D45BFE7FFFFFFFF6B
:10581000FFFFFFF7B94C5E3D3D3DBFEFFFFFFFFFD0
:10582000FFFFDDBE5E3D5D453E3DBFDFFFFFFFFF8D
:10583000FFFF1B8E5E3D3E451C45DFEFFFFFFFFF78
:10584000FFFFFFE73D455E3D5E455E455E3DFB4437
:10585000FFF71EBF5E3D5E3D3D45BEA6FFFFFFFF5D
:10586000FFFFFFFF1EBF3E451B55FFFFFFFFFFFF72
:10587000FFFFFFF71C3D5E3DFA54FFFFFFFFFFFFF8
:10588000FFF73D451D3D1D3D5B6DFFFFFFFFFEFF2B
:10589000FFFFFFFFF9545E3D5E3D5E455F3D3E3DCF
:1058A000FFE7FEBE5F3D5F3D5E3DFB44FFFFFFFF48
:1058B000FFFFFFFFFFE71C4DDEB6FFFFFFFFFFFF0F
:1058C000FFFFFFFF5A6D3E3D7FCFFFFFFFFFFFFF52
:1058D0005ECF5E3D5F3D3D45FFEFFFFFFFFFFFFFFA
:1058E000FFFFFFFFBFDF3C455F3D5E455E455F3D1F
:1058F000FDBE1EBF5F3D5D455E3D3D45FFEFFFFFC9
:10590000FFFFFFFFFFF71965FFF7FFFFFFFFFFFF37
:10591000FFFFFFFF9FD7B94CFFF7FFFFFFFFFFFF20
:10592000D7643C4D5F3DB954FFF7FFFFFFFFFFFF1A
:10593000FFFFFFFFFFF71A5D5E3D3E455E3D5E3DAA
:105940001EBF1EB75F3D5E3D5F3D3D459E96FFFF1E
:10595000FFFFFFFFFFFF1DD7FFFFFFFFFFFFFFFF61
:10596000FFFFFFFFFFF79CBEFFFFFFFFFFFFFFE70B
:105970001EB75E863E455EC7FFFFFFFFFFFFFFFFCE
:10598000FFFFFFFFFFFFFFE73D455E3D3E3D5F3D03
:10599000FEBE1EBF5F455E3D5F3D5E453B55FFF76A
:1059A000FFFFFFFFFFFFFFFFFFFFFFFFFFFFFFFF07
:1059B000FFFFFFFFFFFFFFFFFFFFFFFFFFFF167D62
:1059C0007A75BDA6F95CFFEFFFFFFFFFFFFFFCC686
:1059D000FFF7FFFFFFFFFFFFFA5C3D455E455F3DC0
:1059E000FEBEBFDF3E455E455E3D5E3D3C45BFDFE2
:1059F000FFFFFFFFFFFFFFFFFFFFFFFF3EC77ECF61
:105A0000FFFFFFFFFFFFFFFFFFFFFFFFFFF7DDAE21
:105A10005EB718759FE7FFFFFFFFFFFFFFEFFA5428
:105A2000FFEFFFFFFFFFFFFFBFE73E455F3D5F3D2D
:105A3000FEBEFFEF1D455E3D5E455E3D5E457DA6BB
:105A4000FFFFFFFFFFFFFFFFFFFFFFFF1A5DF9549E
:105A5000FFFFFFFFFFFFFFFFFFFFFFFF1DCFDA8DFF
:105A60003875FDBEFFFFFFFFFFFFFFFF7FCF3D4506
:105A70007B6DFFFFFFFFFFFFFFFF3A5D5F455E3D70
:105A8000FEBEFFEFFC445E3D5E455E3D5E3DBA4CB2
:105A9000FFF7FFFFFFFFFFFFFFFFFFF71C453D453F
:105AA000FFF7FFFFFFFFFFFFFFFFFFF7B75C7EBFC2
:105AB000DDAEFFF7FFFFFFFFFFFFFFFFD9545E3DA5
:105AC0001D3DBFE7FFFFFFFFFFFFFFE73D455E3DD9
:105AD000FEBEFFF7B94C5E3D5E3D5E3D5E3D3D4521
