:020000040800F2
:1000000018050020010100081F150008DB0F00087B
:100010001D15000875010008211F000800000000E0
:10002000000000000000000000000000C51A0008E9
:1000300085010008000000000D1A0008C71A00081A
:100040001B0100081B0100081B0100081B01000820
:100050001B0100081B0100081B0100081B01000810
:100060001B0100081B0100081B0100081B01000800
:100070001B0100081B0100081B0100081B010008F0
:100080001B0100081B0100081B0100081B010008E0
:100090001B0100081B0100081B0100081B010008D0
:1000A0001B0100081B0100081B0100081B010008C0
:1000B0001B0100081B0100081B0100081B010008B0
:1000C0001B0100081B0100081B0100081B010008A0
:1000D0001B0100081B0100081B0100081B01000890
:1000E0001B0100081B0100081B010008DFF80CD0F1
:1000F00000F02EF8004800473521000818050020C0
:100100000648804706480047FEE7FEE7FEE7FEE7B1
:10011000FEE7FEE7FEE7FEE7FEE7FEE73D1B000821
:10012000ED00000830B50B460146002020220124D6
:1001300009E021FA02F59D4205D303FA02F5491BB5
:1001400004FA02F52844151EA2F10102F1DC30BDCB
:10015000064C074D06E0E06840F0010394E8070014
:1001600098471034AC42F6D3FFF7C4FF804E000826
:10017000A04E0008FEE7000001490860704700003B
:10018000380400407047000070B5044600F0F2F8F3
:100190000546601C02D004480078044400F0EAF8E8
:1001A000401BA042FAD370BD040000202DE9F84F97
:1001B000DFF890A100220AF1040B144601274FF04A
:1001C0000F090BF1040E00BF0B6807FA04F52B4072
:1001D000AB4274D1DFF870C14E68A6EB0C086645DF
:1001E0002BD00DDC032E34D005DC36B3012E19D014
:1001F000022E2FD11BE0112E16D0122E2AD119E07B
:10020000B8F5881F19D006DCB8F5803F15D0B8F5D1
:10021000801F1FD111E0B8F5001F0ED0B8F5041FE4
:1002200018D10AE0CA6815E0CA68121D12E0CA684F
:1002300008320FE0CA680C320CE08A682AB1012A41
:100240004FF0080203D0456104E0042202E005619A
:1002500000E00022FF2B01D8064601E000F1040671
:100260004FEA840501D9A5F12005D6F800C009FAA6
:1002700005F82CEA080C02FA05F54CEA050CC6F85C
:1002800000C04D68ED0057D5304DAE6946F001060F
:10029000AE61AD6924F0030605F0010500952C4D13
:1002A00006EB050CDCF80850A6074FEA167809FAA9
:1002B00008F6B543274EB04202D1002610E03BE0DD
:1002C000254EB04201D101260AE0244EB04201D1B0
:1002D000022605E0224EB04201D1032600E00426AA
:1002E00006FA08F62E43CCF808604D68DAF800608C
:1002F000ED03554601D51E4300E09E432E604D6838
:10030000DBF80060AD035D4601D51E4300E09E436F
:100310002E604D68DEF80060ED02754601D51E4383
:1003200000E09E432E604D68AD020E4D2E6801D553
:100330001E4300E09E432E60641C102CFFF444AF6B
:10034000BDE8F88F000401400000111000100240C9
:100350000000014000080140000C01400010014075
:10036000001401400C0401400AB101617047090406
:10037000FBE700000148806870470000040000208F
:1003800002488168027811448160704704000020AF
:10039000074810B5016841F010010160032000F02A
:1003A00089F8002000F006F800F024F8002010BDC5
:1003B0000020024070B50D4D04464FF47A71287844
:1003C000B1FBF0F00A490968B1FBF0F000F03BFC2A
:1003D00048B9102C07D200222146501E00F04AF8DE
:1003E00000206C6070BD012070BD00000400002082
:1003F000000000201D4808B5816941F001018161BC
:10040000806900F001000090032000F053F8002202
:1004100011466FF00B0000F02DF8002211466FF02E
:100420000A0000F027F8002211466FF0090000F0E2
:1004300021F800221146501F00F01CF8002211463E
:10044000101F00F017F800221146901E00F012F85D
:1004500000221146501E00F00DF80548416821F0B9
:10046000E06141F00071416008BD000000100240F1
:1004700000000140F0B40E4B1B680C46C3F302238E
:10048000C3F10705042D00D90425191D072901D240
:10049000002300E0DB1E012606FA05F1491E21407B
:1004A00099409E40761E16403143F0BC01F038B8AA
:1004B0000CED00E0064900F0070208684FF6FF0364
:1004C000184040EA0220034A1043086070470000C9
:1004D0000CED00E00000FA052DE9F047DFF83C8163
:1004E00005460E46D8F8000000F00700B0420CD2D6
:1004F000D8F8001021F007013143C8F80010D8F8EF
:10050000000000F00700B04263D12878444C800717
:1005100005D56068A96820F0F0000843606028787D
:10052000C00745D06868012816D02168022816D077
:10053000890700294DDA616821F0030101436160F8
:10054000FFF718FF6968074641F2883001290FD08C
:100550000229814619D027E021688903E9E789014A
:10056000E7E700BFFFF706FFC11B494501D918E0C7
:1005700081466068C0F381000128F3D118E000BF14
:10058000FFF7F8FEC11B49450BD86068C0F3810036
:100590000228F5D10CE000BFFFF7ECFEC11B494576
:1005A00002D90320BDE8F087606810F00C0FF3D18A
:1005B000D8F80010404601F00701B1420BD901689C
:1005C00021F0070131430160006800F00700B042EC
:1005D00001D00120E6E72878400705D56068E96882
:1005E00020F4E060084360602878000706D5606862
:1005F000296920F4605040EAC100606000F03CF8D6
:100600006168084AC1F30311515CC840064908609B
:100610000020FFF7CFFE0020C4E7000000200240CA
:1006200000100240E421000800000020014800689A
:100630007047000000000020044805490068496830
:10064000044AC1F30221515CC840704700000020F9
:1006500000100240F4210008044805490068496878
:10066000044AC1F3C221515CC84070470000002019
:1006700000100240F421000812A185B00FC98DE8D6
:100680000F0014A0144A006804905168134801F048
:100690000C03042B10D0082B0ED1C1F38343C903E4
:1006A0001DF803000AD5516804AAC1F34041515C0A
:1006B0000A4A5043B0FBF1F005B07047084948437F
:1006C000FAE7000002030405060708090A0B0C0DEF
:1006D0000E0F1010010200000010024000127A00FC
:1006E00000093D002DE9F84F04460078B94DC007D8
:1006F00048D06868C0F38100012807D06868C0F35B
:100700008100022809D16868C00306D528688003E3
:1007100038D5606800286FD034E06068B0F5803F5D
:100720000BD010B1B0F5A02F11D0286820F4803084
:100730002860286820F4802002E0286840F4803097
:100740002860606888B1FFF715FE064609E0286852
:1007500040F480202860F0E7FFF70CFE801B64283F
:1007600075D828688003F7D50CE0FFF703FE06462E
:1007700005E000BFFFF7FEFD801B6428F0D8286865
:100780008003F7D42078944E80074FF001094FF092
:1007900000083BD5686810F00C0F07D06868C0F3FC
:1007A0008100022809D16868C00306D42868800740
:1007B00014D5206901281FD110E02069B0B1C6F816
:1007C0000090FFF7D7FD074605E000BFFFF7D2FD19
:1007D000C01B0228C4D828688007F7D5286861693B
:1007E00020F0F80040EAC10028600FE0C6F8008061
:1007F000FFF7C0FD074606E0E9E000BFFFF7BAFDDE
:10080000C01B022823D828688007F7D42078000767
:100810002CD57248A169D9B1C0F80090FFF7AAFDA4
:10082000074604E0FFF7A6FDC01B02280FD8686A40
:100830008007F7D56A484FF4FA510068B0FBF1F031
:10084000009000BF0098411E0091FAD20EE080E0B7
:10085000C0F80080FFF78EFD074604E0FFF78AFD31
:10086000C01B022875D8686A8007F7D42078400733
:1008700060D5E8690027C00008D4E86940F08050DE
:10088000E861E869012700F0805000905548016850
:10089000C90513D40168834641F480710160FFF7F4
:1008A00069FD824606E000BFFFF764FDA0EB0A0089
:1008B00064284ED8DBF80000C005F5D5E0680128B3
:1008C0000AD008B1052813D0286A20F00100286258
:1008D000286A20F0040002E0286A40F00100286243
:1008E000E06841F2883B98B1FFF744FD82460BE097
:1008F000286A40F004002862EEE700BFFFF73AFDE7
:10090000A0EB0A0159455AD8286A8007F6D50CE0B1
:10091000FFF730FD824605E0FFF72CFDA0EB0A0152
:1009200059454CD8286A8007F6D41FB1E86920F0F1
:100930008050E861E06988B36968C1F381010229E8
:1009400045D00228C6F8608004D0FFF713FD0446A6
:1009500038E034E0FFF70EFD074604E0FFF70AFD3C
:10096000C01B02282BD828688001F7D4206AB0F574
:10097000803F05D16868A16820F4003008436860B2
:10098000D4E908010843696821F4741108436860D8
:10099000C6F86090FFF7EEFC044606E015E000BFE5
:1009A000FFF7E8FC001B022809D828688001F7D56A
:1009B0000BE000BFFFF7DEFC001B022802D903207A
:1009C000BDE8F88F28688001F4D40020F8E7012002
:1009D000F6E700000010024000004242800442425C
:1009E000000000200070004070B5040005D0002514
:1009F000A56294F8510010B104E0012070BD2046BA
:100A000000F034F8022084F851002068016821F0D9
:100A100040010160D4E901010843D4E90312114304
:100A2000084361690843218B01F400710843E169BF
:100A30000843216A0843A16A084321680860A06945
:100A4000042101EA1040616A084321684860216876
:100A5000E06A08612068C16921F40061C1616565CF
:100A6000012084F85100002070BD000010B500681E
:100A7000114986B088421CD11048816941F48051E7
:100A8000816180690E4C00F480500490A020009099
:100A9000022001900320039069462046FFF786FB61
:100AA00000214020CDE90001029169462046FFF770
:100AB0007DFB06B010BD0000003001400010024078
:100AC000000801402DE9F84F044690F85000002638
:100AD000994617460D4601280DD04FF0010B84F8BA
:100AE00050B0FFF747FC804694F85100B246012809
:100AF00004D0022694E00220BDE8F88F002D7BD0C0
:100B0000002F79D0032084F85100C4F854A0256345
:100B1000A786E786C4F838A0A4F83CA0A4F83EA0B5
:100B2000C4F844A0C4F840A0A068B0F5004F04D1B8
:100B30002068016841F4804101602068016849062D
:100B400003D4016841F040010160E068B0F5006F36
:100B5000606804D030B3E08E012823D03EE010B1AD
:100B6000E08E01281AD135F8021B206805E02068C4
:100B70008168890706D535F8021BC160E08E401EEA
:100B8000E0860BE0B9F1000F34D0B9F1FF3F05D09A
:100B9000FFF7F0FBA0EB080149452BD2E08E0028BF
:100BA000E5D11EE0216815F8010B087306E0206806
:100BB0008168890706D515F8011B0173E08E401E78
:100BC000E0860BE0B9F1000F14D0B9F1FF3F05D07A
:100BD000FFF7D0FBA0EB080149450BD2E08E0028BF
:100BE000E5D14B46012202212046CDF8008000F0DD
:100BF0001EFF10B1032613E011E04246494620468D
:100C000000F005FF18B101262020606508E0A0680B
:100C100018B92068C16880680090606D00B1012635
:100C200084F851B084F850A0304665E74FF0E021D9
:100C30000428086903D020F004000861704740F0E0
:100C40000400FAE7704710B5401EB0F1807F01D371
:100C5000012010BD4FF0E02460610F21601700F00B
:100C60005FFC0020A06107202061002010BD10B5AE
:100C7000FFF7E8FF10BD30B590F83C20012A20D0E6
:100C8000012280F83C20022380F83D3003685C6834
:100C900024F070045C6003685C680D682C435C6041
:100CA00003689C6824F080049C6003689C68496821
:100CB0000C439C6080F83D20002180F83C100846E1
:100CC00030BD022030BD00001FB500680A498842CF
:100CD00011D18020009002200190039069460748BE
:100CE000FFF764FA0648416821F4406141F0E06191
:100CF00041F4406141601FBD00040040001001400C
:100D00000000014070B5044690F83C000D460128F3
:100D10000DD0012684F83C60022084F83D0042B1E9
:100D2000042A18D0082A2AD00C2A4DD139E00220F2
:100D300070BD206800F068FF2068816941F00801FB
:100D400081612068816921F00401816120688169E5
:100D50002A69114311E0206800F07EFF2068816954
:100D600041F4006181612068816921F480618161C1
:100D7000206881692A6941EA0221816124E02068B2
:100D800000F096FF2068C16941F00801C161206848
:100D9000C16921F00401C1612068C1692A69114358
:100DA00011E0206800F0B0FF2068C16941F40061E3
:100DB000C1612068C16921F48061C1612068C16995
:100DC0002A6941EA0221C16184F83D60002084F86B
:100DD0003C0070BD10B5040003D094F83D0010B184
:100DE00007E0012010BD002084F83C00204600F000
:100DF0000DF8022084F83D00211D206800F0C2FE9D
:100E0000012084F83D00002010BD000008B50068F6
:100E10000649884208D10648C16941F00201C16112
:100E2000C06900F00200009008BD0000000400400E
:100E30000010024010B504460068012200F0D8FE00
:100E400007492068884203D1416C41F40041416464
:100E50002068016841F001010160002010BD000020
:100E6000002C014070B5040004D094F8390000252E
:100E700010B106E0012070BD84F83850204600F023
:100E800023F8242084F839002068C16821F4005137
:100E9000C160204600F05AFF2068016921F49041AA
:100EA00001612068416921F02A0141612068C1681F
:100EB00041F40051C160E563202084F8390084F8D2
:100EC0003A00002070BD000010B50068114986B0DE
:100ED00088421CD11048C16941F40031C161C06928
:100EE0000E4C00F400300490042000900220019089
:100EF0000320039069462046FFF758F90021082097
:100F0000CDE90001029169462046FFF74FF906B08E
:100F100010BD0000004400400010024000080140E5
:100F20002DE9F843044690F839001F4616460D4651
:100F3000202850D1A5B19EB194F8380001284AD09C
:100F4000012084F838004FF00008C4F83C802120CC
:100F500084F83900FFF70EFAA6848146E68426E07D
:100F60000120BDE8F883E08C401EE084A0684B4679
:100F7000B0F5805F4FF000024FF0800120460097EF
:100F800003D000F09BFFE8B90DE000F097FFC8B96F
:100F900028882168C0F308004860206908B16D1CEA
:100FA00005E0AD1C03E0216815F8010B4860E08CFA
:100FB0000028D8D14B46002240212046009700F05F
:100FC0007DFF08B10320CCE7202084F8390084F8A5
:100FD00038800020C5E70220C3E7FEE770B506466B
:100FE00000214F239F22084600F016F90024002517
:100FF000304600F069F96D1C502DF9D3641CA02C0B
:10100000F5D370BD70B5002240218148FFF7ACF9DF
:101010001420FFF7B9F87F4D4FF4007400222146E9
:101020002846FFF7A1F91420FFF7AEF80122214668
:101030002846FFF799F91420FFF7A6F8112000F0D1
:101040006FF97820FFF7A0F8212000F069F921203E
:1010500000F066F9B12000F063F9052000F014F902
:101060003A2000F011F93A2000F00EF9B22000F019
:1010700057F9052000F008F93A2000F005F93A2068
:1010800000F002F9B32000F04BF9052000F0FCF865
:101090003A2000F0F9F83A2000F0F6F8052000F0C8
:1010A000F3F83A2000F0F0F83A2000F0EDF8B42020
:1010B00000F036F9032000F0E7F8C02000F030F926
:1010C000622000F0E1F8022000F0DEF8042000F0D9
:1010D000DBF8C12000F024F9C02000F0D5F8C220D0
:1010E00000F01EF90D2000F0CFF8002000F0CCF841
:1010F000C32000F015F98D2000F0C6F86A2000F03A
:10110000C3F8C42000F00CF98D2000F0BDF8EE20EB
:1011100000F0BAF8C52000F003F90E2000F0B4F892
:10112000E02000F0FDF8102000F0AEF80E2000F0F6
:10113000ABF8022000F0A8F8032000F0A5F80E207C
:1011400000F0A2F8072000F09FF8022000F09CF8C1
:10115000072000F099F80A2000F096F8122000F01D
:1011600093F8272000F090F8372000F08DF8002049
:1011700000F08AF80D2000F087F80E2000F084F8C7
:10118000102000F081F8E12000F0CAF8102000F0F3
:101190007BF80E2000F078F8032000F075F80320AB
:1011A00000F072F80F2000F06FF8062000F06CF8E5
:1011B000022000F069F8082000F066F80A2000F02C
:1011C00063F8132000F060F8262000F05DF8362068
:1011D00000F05AF8002000F057F80D2000F054F805
:1011E0000E2000F051F8102000F04EF83A2000F0E8
:1011F00097F8052000F048F8362000F091F8A82074
:1012000000F042F8BDE87040292000F089B80000E5
:10121000000C0140000801402DE9F041401C1A314A
:101220001A3387B2521C8EB29CB295B22A2000F0BB
:1012300077F8380A00F028F8F8B200F025F8280A04
:1012400000F022F8E8B200F01FF82B2000F068F858
:10125000300A00F019F8F0B200F016F8200A00F099
:1012600013F8E0B200F010F8BDE8F0412C2000F0D7
:1012700057B810B514460B460246FFF7CDFF20467F
:10128000BDE8104000F020B831B50C4C00224021E0
:101290002046FFF769F8012211020948FFF764F8B8
:1012A0004FF4FA73012269460648FFF70BFC01224E
:1012B00040212046FFF758F838BD0000000C0140DF
:1012C000000801402800002031B582B0114C02987E
:1012D0000022000A8DF8000040212046FFF744F864
:1012E000012211020C48FFF73FF84FF4FA752B4624
:1012F000012269460948FFF7E5FB2B46012202A9B6
:101300000648FFF7DFFB012240212046FFF72CF8BB
:101310003EBD0000000C01400008014028000020F4
:1013200031B50C4C002240212046FFF71DF8002269
:10133000A1150948FFF718F84FF4FA73012269461E
:101340000648FFF7BFFB012240212046FFF70CF8BB
:1013500038BD0000000C01400008014028000020BA
:1013600070B5224886B0816941F0200181618169B0
:1013700001F020010491816941F0040181618169DA
:1013800001F004010491816941F0100181618169DA
:1013900001F010010491816941F0080181618069C7
:1013A000134D00F008004FF44074049000222146D1
:1013B0002846FEF7D9FF0F4E002240213046FEF7A7
:1013C000D3FF00940220012403906946019428462B
:1013D000FEF7ECFE4020CDE90004032003906946AF
:1013E0003046FEF7E3FE06B070BD0000001002407C
:1013F00000080140000C0140114810B50F49016080
:101400004FF48271416000218160C1604FF400722D
:101410000161C0E905120822C0E907214162816229
:101420000A21C162FFF7E0FA002805D0BDE81040AC
:10143000452104A000F075BD10BD00000030014042
:10144000280000202E2E2F5372632F7370692E6395
:101450000000000010B519488AB017490024C0E9FF
:1014600000148460C46004618461FFF7B3FC18B1A8
:101470003F2113A000F055FD079407A90F480894D9
:10148000FFF7F9FB18B146210DA000F04AFD6020DE
:10149000CDE9000402940422694608480494FFF749
:1014A00031FC18B14F2106A000F03BFD0348FFF7C7
:1014B0000BFC0AB010BD000000040040C00000207A
:1014C0002E2E2F5372632F74696D2E63000000005F
:1014D0000D4810B50B4901604FF4E1314160002126
:1014E00081600C22C160C0E904128161C161FFF713
:1014F000B9FC002805D0BDE81040422103A000F04F
:1015000010BD10BD00440040800000202E2E2F533F
:1015100072632F75736172742E630000FEE770476B
:101520000907090E002806DA00F00F0000F1E0209C
:1015300080F8141D704700F1E02080F80014704717
:10154000FFF74CBD2DE9F05F81462B481E46DDF8C4
:1015500028B0838888464B4502D3C188414504D2D0
:10156000BDE8F05F25A000F0DDBCB088410700D0E9
:10157000012101EBD000203AF18850434843316803
:101580004FF0800A0F18002530E0002425E000BF4E
:10159000ABF57F41FF39397804F007022AFA02F0EF
:1015A00001EA000101D009B908E081B108EB0500AA
:1015B00081B209EB040080B20B9A06E008EB05004B
:1015C00081B209EB040080B25A4600F083F9E0438F
:1015D000400700D17F1C641CA4B2B088A042D7D8B9
:1015E0003079400700D07F1C6D1CADB2F088A84256
:1015F000CBD8BDE8F09F0000000100204465627573
:1016000067203A205061696E745F44726177436865
:10161000617220496E7075742065786365656473C6
:1016200020746865206E6F726D616C2064697370E0
:101630006C61792072616E67650D0A002DE9F05FBB
:101640001D46904606468A46DDF828B0B9E07F2957
:101650004FF0000056D8AA884EE053232C6843432D
:1016600014F813308B4246D153214843022101EB39
:10167000400004EB0009002739E000242EE000BF01
:10168000ABF57F40FF384FEAE47004EB507020F078
:101690000700A4EB000299F800104FF0800020FA38
:1016A00002F001EA000101D009B907E071B10AEBCB
:1016B000070081B2301980B20B9A05E00AEB0700EF
:1016C00081B2301980B25A4600F004F9404804EA69
:1016D0000001072901D109F10109641C2889A042F0
:1016E000CEDC287A400701D009F101097F1C688906
:1016F000B842C2DC02E0401C8242AEDC08F10108C4
:10170000E8885DE00127AA8855E053232C6843430D
:1017100014F813C08C454DD107EB4303E45C98F8F3
:1017200001309C4246D15321484302212A6801EBF3
:10173000400002EB0009002738E000242DE000BF44
:10174000ABF57F40FF384FEAE47004EB507020F0B7
:101750000700A4EB000299F800104FF0800020FA77
:1017600002F001EA000101D009B907E071B10AEB0A
:10177000070081B2301980B20B9A05E00AEB07002E
:1017800081B2301980B25A4600F0A4F810482040C7
:10179000072801D109F10109641C2889A042CFDC86
:1017A000287A400701D009F101097F1C6889B842F5
:1017B000C3DC02E0401C8242A7DC288908F1020851
:1017C000064498F8001000297FF441AFBDE8F09F6F
:1017D000070000802DE9FC5F80461B4889460D46C6
:1017E0008188DDF834B01E4617464446A14203D333
:1017F000C1888246A94222D2BDE8FC5F134800F0AE
:1018000091BBB088BAF8043001195046994203D907
:10181000F188444629448DB2F188C0882944814228
:1018200001D944464D460C99CDE9001B3346294663
:101830002046FFF787FEB0887F1C204484B23A78A8
:10184000002ADED1BDE8FC9F00010020384E0008D0
:101850002DE9F0410F4C17460D4606462081618167
:10186000A3816082A182A28A618A0BA000F05AFB48
:101870000F2112A000F056FBE781002020822FB13B
:10188000B42F03D0A580E680BDE8F081A680E58076
:10189000FAE7000000010020576964746842797417
:1018A00065203D2025642C2048656967687442796D
:1018B0007465203D2025640D0A0000002045504439
:1018C0005F5749445448202F2038203D2025640D7F
:1018D0000A00000030B4044624488388A3423AD367
:1018E000C3888B4237D3C389E3B15A2B1CD0B42BA6
:1018F00020D0B3F5877F36D10B464189091B491E9D
:1019000089B2048A0CB3012C1BD0022C05D0032C05
:1019100029D10489E31A5B1E9BB24489611A491ECE
:1019200089B212E02346ECE70389591A491E8BB2AB
:101930002146E6E703891B1B5B1E44899BB2611AA3
:10194000DDE70489E31A5B1E9BB204899C4202D343
:101950004089884203D230BC05A000F0E3BA30BC15
:101960001846FFF786BC30BC70470000000100201D
:101970004465627567203A20457863656564696EE1
:101980006720646973706C617920626F756E646141
:10199000726965730D0A000010B504000BD05A2C53
:1019A00009D0B42C07D0B4F5877F04D0BDE810402F
:1019B00004A000F0B7BA01460BA000F0B3FA124839
:1019C000C48110BD4465627567203A20726F7461EE
:1019D0007465203D20302C2039302C203138302CBB
:1019E000203237300D0A00004465627567203A20C6
:1019F00053657420696D61676520526F7461746509
:101A00002025640D0A00000000010020704738B551
:101A10000B46009204460022802100F008F80028BE
:101A200004D0606D40F020006065032038BD2DE9D2
:101A3000F0411D4617460E460446DDF8188035E095
:101A4000681C33D02DB1FEF795FCA0EB0800A8422E
:101A50002CD32068416821F0E00141606068B0F556
:101A6000827F0BD1A068B0F5004F02D0B0F5806F37
:101A700004D12068016821F040010160A06AB0F53E
:101A8000005F0AD1206801684DF6FF7211400160C5
:101A90002068016841F400510160012084F8510080
:101AA000002084F850000320BDE8F08120688068A1
:101AB00036EA000004D00020B842C1D10020F3E78C
:101AC0000120F9E7704710B5FEF75AFCBDE8104059
:101AD000FFF7CDB830B58FB001210804CDE9001073
:101AE0000024029402250491CDE907504FF4E01040
:101AF00009906846FEF7F6FD00B1FEE70F20CDE93C
:101B00000A054FF48060CDE90C4002210AA80E942A
:101B1000FEF7E2FC00B1FEE7FEF788FD4FF47A71B4
:101B2000B0FBF1F0FFF78FF80420FFF77FF80022F9
:101B30001146501EFEF79EFC0FB030BD0D480168E7
:101B400041F00101016041680B4A114041600168A8
:101B50000A4A11400160016821F480210160416856
:101B600021F4FE0141604FF41F0181600449C0036C
:101B700008607047001002400000FFF8FFFFF6FE0B
:101B800008ED00E0F0B50268164B174C174D4FF00A
:101B90008047984205D0B84203D0A04201D0A84265
:101BA00003D122F070064A683243984205D0B84209
:101BB00003D0A04201D0A84203D122F44074CA68E5
:101BC000224322F080044A69224302608A68C2628A
:101BD0000A688262984201D1096901630121416169
:101BE000F0BD0000002C014000040040000800404F
:101BF00010B50123046A8B409C430462036A8A4047
:101C00001343036210BD000030B5026A22F00102E6
:101C10000262026A4368846924F073050C682C43ED
:101C200022F002058A682A430A4DA8420BD122F00D
:101C30000805CA6823F440732A434D6922F0040260
:101C40001D438B692B434360846149684163026291
:101C500030BD0000002C014030B5026A22F01002B5
:101C60000262026A436884690D6824F4E64444EA27
:101C700005248D6822F0200242EA05120B4DA8428D
:101C80000ED1CD6822F0800242EA05124D6923F49C
:101C9000406343EA85038D6922F0400243EA8503ED
:101CA0004360846149688163026230BD002C014059
:101CB00030B5026A22F480720262036A4268C46923
:101CC00023F4007324F073050C682C438D6843EAF9
:101CD00005230C4DA8420ED1CD6823F4006343EADE
:101CE00005234D6922F4405242EA05128D6923F41E
:101CF000806342EA05124260C4614968C1630362BD
:101D000030BD0000002C014030B5026A22F4805240
:101D10000262046A4268C3690D6823F4E64343EA39
:101D200005238D6824F4005444EA0534064DA84286
:101D300004D14D6922F4804242EA85124260C361B7
:101D400049680164046230BD002C01402DE9F04176
:101D5000044600680169E26821F4405111430161C1
:101D60002169A0680843616908432168CA6841F293
:101D70000C639A430243CA6020684169A26921F456
:101D80004071114341614C492068642532268842E4
:101D90003CD1FEF761FC00EBC00101EB0010616873
:101DA0008900B0FBF1F7FEF757FC00EBC00101EB37
:101DB00000106168B0468900B0FBF1F0B0FBF5F0AF
:101DC0006FF01801484307EB800106EB0110B0FBF0
:101DD000F5F000F0F006FEF73FFC00EBC00101EB70
:101DE000001061688900B0FBF1F0B0FBF5F006EB84
:101DF0000016FEF731FC00EBC00101EB001061683A
:101E00008900B0FBF1F7FEF727FC3BE0FEF714FC7E
:101E100000EBC00101EB001061688900B0FBF1F735
:101E2000FEF70AFC00EBC00101EB00106168B04650
:101E30008900B0FBF1F0B0FBF5F06FF018014843FA
:101E400007EB800106EB0110B0FBF5F000F0F006A7
:101E5000FEF7F2FB00EBC00101EB001061688900A6
:101E6000B0FBF1F0B0FBF5F006EB0016FEF7E4FB7B
:101E700000EBC00101EB001061688900B0FBF1F7D5
:101E8000FEF7DAFB00EBC00101EB0010616889008E
:101E9000B0FBF1F0B0FBF5F06FF01801484307EB31
:101EA000800108EB0110B0FBF5F0216800F00F0095
:101EB00030448860BDE8F081003801402DE9F041F0
:101EC000984617460E460446069D1DE0681C1BD02A
:101ED0002DB1FEF74FFAA0EB0800A84214D92068F4
:101EE000C16821F4D071C1602068416921F001010D
:101EF0004161202084F8390084F83A00002084F8F9
:101F000038000320BDE8F0812068006836EA000050
:101F100004D00020B842D9D00020F3E70120F9E72F
:101F2000FEE7FEE70FB4054B10B503A9044A02987B
:101F300000F018F810BC5DF814FB00001D2100082B
:101F40002400002002E008C8121F08C1002AFAD1AC
:101F500070477047002001E001C1121F002AFBD129
:101F6000704700002DE9FF4F8BB09A460F4605469B
:101F7000002606E025280BD052460D9990476D1C8F
:101F8000761C28780028F5D10FB03046BDE8F08FD8
:101F90000024A0460122604900E0044315F8013FF7
:101FA000203B02FA03F00842F7D128782E2817D1F7
:101FB00015F8010F44F004042A280ED06FF02F0208
:101FC0002878A0F1300109290AD808EB880102EB32
:101FD000410100EB01086D1CF2E757F8048B6D1C02
:101FE000287869283ED006DC0028CDD063280BD0A5
:101FF000642804D136E0732810D075284BD052469F
:102000000D999047761C85E017F8040B8DF80000B9
:1020100000208DF80100E946012003E057F8049BF9
:102020004FF0FF3061074FF0000401D40AE0641C58
:1020300044450DDA8442FADB19F804100029F6D180
:1020400006E0641C8442FCDB19F804100029F8D176
:10205000264404E019F8010B52460D999047641E7E
:10206000F8D257E001CF4FF00A0B002802DA4042C5
:102070002D2102E0210504D52B218DF8241001210A
:1020800003E0E10705D02021F7E70DF120090891D1
:102090000CE00021F9E701CF4FF00A0BF9E75946B0
:1020A000FEF740F801F1300209F8012D0028F6D1C1
:1020B000ADEB090000F1200B600701D44FF00108DF
:1020C000D84502DDA8EB0B0000E00020804600248C
:1020D00006E009A85246005D0D999047641C761CE5
:1020E00008988442F5DB04E0302052460D99904771
:1020F000761CB8F10001A8F10108F5DC05E019F83B
:10210000010B52460D999047761CBBF10001ABF1D3
:10211000010BF4DC6D1C34E70928010013B54FF600
:10212000FF73012269460248FEF7FAFE00981CBDC3
:10213000800000201CB5FEF72BF9FFF7CBFCFFF762
:102140000FF9FFF759F9FFF7C3F9FFF783F90821F2
:102150001C48FEF76FFE4FF44870FEF70DF8FEF7CF
:1021600051FF0020FEF73AFF4FF6FF74234600228E
:102170005021A020FFF76CFB2046FFF7E1F95A2021
:10218000FFF70AFC4FF6F0710F20CDE900010E4B6E
:102190000EA200210A20FFF71DFB61101F20CDE9D0
:1021A0000001094B0AA214211E20FFF713FB4FF474
:1021B0007840CDE90040074B07A22D210A20FFF708
:1021C0003DFAFEE7C000002010000020313233004D
:1021D0004142430018000020CEA2D1A9B5E7D7D3D1
:1021E00000000000000000000000000001020304E5
:1021F00006070809000000000102030400000000B7
:1022000000000000000000000000000000000000CE
:1022100000000000000000000000000000000000BE
:1022200000000000000000000000000000000000AE
:10223000000000000000000000000000000000009E
:102240000000000000000000000003800003800088
:1022500003800003800003800003800003800003EC
:102260008000038000010000010000000000000069
:102270000003800003800000000000000000000058
:10228000000000000000000000000000000000004E
:1022900000000000000E70000E70000E70000420A0
:1022A00000042000042000042000000000000000C2
:1022B000000000000000000000000000000000001E
:1022C000000000000000000000000000000000000E
:1022D0000000000000000000000006600006600032
:1022E0000660000660000660003FF8003FF8000648
:1022F00060000CC0003FF8003FF8000CC0000CC0AC
:10230000000CC0000CC0000CC00000000000000069
:1023100000000000000000000000000000000001BC
:10232000800001800007B0000FF0001870001870E6
:10233000001C00000F800007E00000F000183000D3
:102340001C30001C70001FE0001BC0000180000159
:1023500080000180000180000000000000000000FB
:10236000000000000000000000000780000FC00017
:102370001CE0001860001860001CE0000FF8000767
:10238000E0001FF0000738000618000618000738A4
:102390000003F00001E00000000000000000000069
:1023A000000000000000000000000000000000002D
:1023B000000000000000000003F00007F0000C60C7
:1023C000000C00000C00000600000700000F9C003D
:1023D0001DFC0018F0001870000FFC0007DC000066
:1023E00000000000000000000000000000000000ED
:1023F000000000000000000000000000000380005A
:1024000003800003800001000001000001000001C2
:1024100000000000000000000000000000000000BC
:1024200000000000000000000000000000000000AC
:10243000000000000000000000000000000000009C
:10244000000000180000380000700000F00000E0FC
:102450000000E00001C00001C00001C00001C00098
:1024600001C00001C00000E00000E00000700000BA
:10247000700000380000180000000000000000009C
:10248000000000000000000000001800001C000018
:102490000E00000E0000070000070000038000038C
:1024A0008000038000038000038000038000070099
:1024B000000700000F00000E00001C0000180000C4
:1024C000000000000000000000000000000000000C
:1024D00000000180000180000180001DB8001FF88D
:1024E0000007E00003C00003C000066000066000B3
:1024F00000000000000000000000000000000000DC
:1025000000000000000000000000000000000000CB
:1025100000000000000000000000000000000000BB
:102520000180000180000180000180000180003FE7
:10253000FC003FFC00018000018000018000018060
:10254000000180000000000000000000000000000A
:10255000000000000000000000000000000000007B
:10256000000000000000000000000000000000006B
:10257000000000000000000000000000000000005B
:1025800000000000000000E00000C00001C00001E9
:102590008000018000030000030000000000000034
:1025A000000000000000000000000000000000002B
:1025B0000000000000000000000000000000001FFC
:1025C000F8001FF8000000000000000000000000FC
:1025D00000000000000000000000000000000000FB
:1025E00000000000000000000000000000000000EB
:1025F00000000000000000000000000000000000DB
:1026000000000000000000000000000000000000CA
:1026100000000000000003C00003C00003C0000071
:1026200000000000000000000000000000000000AA
:102630000000000000180000180000380000300002
:1026400000700000600000600000C00000C00001D9
:102650008000018000030000030000060000060067
:10266000000E00000C00001C000018000018000004
:10267000000000000000000000000000000000005A
:10268000000003C00007E0000C30000C30001818F8
:10269000001818001818001818001818001818004A
:1026A0001818000C30000C300007E00003C00000D8
:1026B000000000000000000000000000000000001A
:1026C0000000000000000000000000800007800003
:1026D0001F80001D8000018000018000018000013A
:1026E00080000180000180000180000180000180E5
:1026F000001FF8001FF800000000000000000000AC
:1027000000000000000000000000000000000000C9
:10271000000007C0001FF0003830003018003018EB
:102720000000180000300000600001C000038000BD
:102730000600000C00001800003FF8003FF8000001
:102740000000000000000000000000000000000089
:102750000000000000000000000003C0000FE000C7
:102760000C700000300000300000600003C0000367
:10277000E000007000001800001800001800183871
:10278000001FF0000FC0000000000000000000006B
:102790000000000000000000000000000000000039
:1027A000000000E00001E00001E0000360000660BE
:1027B000000660000C60000C6000186000306000D3
:1027C0003FF8003FF80000600003F80003F8000045
:1027D00000000000000000000000000000000000F9
:1027E000000000000000000000001FF0001FF000CB
:1027F0001800001800001800001BC0001FF0001C8B
:1028000030000018000018000018000018003030D8
:10281000003FF0000FC000000000000000000000BA
:1028200000000000000000000000000000000000A8
:10283000000000F80003F8000700000E00000C0084
:10284000001800001BC0001FF0001C30001818000A
:102850001818001818000C38000FF00003E00000F2
:102860000000000000000000000000000000000068
:10287000000000000000000000001FF8001FF8002A
:1028800018180018380000300000300000700000F8
:10289000600000600000E00000C00000C00001C057
:1028A0000001800001800000000000000000000026
:1028B0000000000000000000000000000000000018
:1028C000000007E0000FF0001C380018180018186E
:1028D000000C300007E00007E0000C300018180082
:1028E0001818001818001C38000FF00007E000004E
:1028F00000000000000000000000000000000000D8
:102900000000000000000000000007C0000FF00001
:102910001C30001818001818001818000C38000F88
:10292000F80003D80000180000300000700000E03C
:10293000001FC0001F000000000000000000000099
:102940000000000000000000000000000000000087
:10295000000000000000000000000000000003C0B4
:102960000003C00003C000000000000000000000E1
:1029700000000000000003C00003C00003C000000E
:102980000000000000000000000000000000000047
:102990000000000000000000000000000000000037
:1029A00000000000000000F00000F00000F0000057
:1029B000000000000000000000000000E00001C076
:1029C0000001800001800003000002000000000000
:1029D00000000000000000000000000000000000F7
:1029E0000000000000000000001C00003C0000F09F
:1029F0000003C0000F00003C0000F000003C00009D
:102A00000F000003C00000F000003C00001C0000AC
:102A100000000000000000000000000000000000B6
:102A200000000000000000000000000000000000A6
:102A30000000000000000000007FFC007FFC0000A0
:102A400000000000007FFC007FFC00000000000090
:102A50000000000000000000000000000000000076
:102A60000000000000000000000000000000000066
:102A700000000000000000007000007800001E0050
:102A80000007800001E000007800001E00007800D0
:102A900001E0000780001E000078000070000000C8
:102AA0000000000000000000000000000000000026
:102AB0000000000000000000000000000007C0004F
:102AC0000FE000187000183000183000007000008F
:102AD000E00003C0000380000300000000000000CD
:102AE00000070000070000000000000000000000D8
:102AF00000000000000000000000000000000000D6
:102B0000000003E00007F0000E38000C18001878F1
:102B10000018F80019D800199800199800199800A1
:102B200018F8001878001800000C00000E180007B4
:102B3000F80003E0000000000000000000000000BA
:102B4000000000000000000000000000001F8000E6
:102B50001FC00001C00003600003600006300006D3
:102B600030000C30000FF8001FF800180C00300C7B
:102B700000FC7F00FC7F000000000000000000005F
:102B80000000000000000000000000000000000045
:102B900000000000007FE0007FF0001838001818E7
:102BA000001818001838001FF0001FF800181C004B
:102BB000180C00180C00180C007FF8007FF00000C3
:102BC0000000000000000000000000000000000005
:102BD0000000000000000000000000000003EC0006
:102BE0000FFC001C1C00180C00300C0030000030E2
:102BF0000000300000300000300000180C001C1CE9
:102C0000000FF80003F000000000000000000000CA
:102C100000000000000000000000000000000000B4
:102C200000000000007FC0007FF000183800181876
:102C300000180C00180C00180C00180C00180C00E0
:102C4000180C001818001838007FF0007FE0000012
:102C50000000000000000000000000000000000074
:102C6000000000000000000000000000007FF800ED
:102C70007FF8001818001818001998001980001F14
:102C800080001F800019800019980018180018187B
:102C9000007FF8007FF80000000000000000000046
:102CA0000000000000000000000000000000000024
:102CB00000000000003FFC003FFC000C0C000C0C6E
:102CC000000CCC000CC0000FC0000FC0000CC000F6
:102CD0000CC0000C00000C00003FC0003FC0000012
:102CE00000000000000000000000000000000000E4
:102CF0000000000000000000000000000003EC00E5
:102D00000FFC001C1C00180C00300C0030000030C0
:102D1000000030FE0030FE00300C00380C001C1C9F
:102D2000000FFC0003F000000000000000000000A5
:102D30000000000000000000000000000000000093
:102D400000000000007E7E007E7E0018180018182B
:102D5000001818001818001FF8001FF800181800B5
:102D60001818001818001818007E7E007E7E0000DB
:102D70000000000000000000000000000000000053
:102D8000000000000000000000000000001FF8002C
:102D90001FF8000180000180000180000180000117
:102DA000800001800001800001800001800001801E
:102DB000001FF8001FF800000000000000000000E5
:102DC0000000000000000000000000000000000003
:102DD000000000000007FE0007FE00003000003089
:102DE0000000300000300000300030300030300093
:102DF0003030003030003060003FE0000F800000D5
:102E000000000000000000000000000000000000C2
:102E1000000000000000000000000000007F3E00F5
:102E20007F3E0018300018600018C0001980001B99
:102E300080001FC0001CE000187000183000183817
:102E4000007F1F007F1F0000000000000000000046
:102E50000000000000000000000000000000000072
:102E600000000000007F80007F80000C00000C004C
:102E7000000C00000C00000C00000C00000C0C000A
:102E80000C0C000C0C000C0C007FFC007FFC000004
:102E90000000000000000000000000000000000032
:102EA00000000000000000000000000000F00F0023
:102EB000F81F00381C003C3C003C3C00366C0036DF
:102EC0006C0033CC0033CC00318C00300C00300C63
:102ED00000FE7F00FE7F00000000000000000000F8
:102EE00000000000000000000000000000000000E2
:102EF000000000000078FE0078FE001C18001E187C
:102F0000001F18001B18001B980019D80018D800C3
:102F100018F8001878001838007F18007F18000093
:102F200000000000000000000000000000000000A1
:102F30000000000000000000000000000003C000CE
:102F40000FF0001C3800181800381C00300C00303E
:102F50000C00300C00300C00381C001818001C3815
:102F6000000FF00003C0000000000000000000009F
:102F70000000000000000000000000000000000051
:102F800000000000003FF0003FF8000C1C000C0C9B
:102F9000000C0C000C0C000C18000FF8000FE000E7
:102FA0000C00000C00000C00003FC0003FC00000FF
:102FB0000000000000000000000000000000000011
:102FC0000000000000000000000000000003C0003E
:102FD0000FF0001C3800181800381C00300C0030AE
:102FE0000C00300C00300C00381C001818001C3885
:102FF000000FF00007C00007CC000FFC000C3800E9
:1030000000000000000000000000000000000000C0
:1030100000000000007FE0007FF000183800181862
:10302000001818001838001FF0001FC00018E0003A
:103030001870001830001838007F1E007F0E000046
:103040000000000000000000000000000000000080
:103050000000000000000000000000000007D80091
:103060000FF8001C38001818001818001E00000F78
:10307000C00003F0000078001818001818001C3871
:10308000001FF0001BE00000000000000000000036
:103090000000000000000000000000000000000030
:1030A00000000000003FFC003FFC00318C00318C30
:1030B00000318C00318C0001800001800001800013
:1030C0000180000180000180000FF0000FF000007F
:1030D00000000000000000000000000000000000F0
:1030E000000000000000000000000000007E7E00E4
:1030F0007E7E0018180018180018180018180018FC
:1031000018001818001818001818001818000C30AB
:10311000000FF00003C000000000000000000000ED
:10312000000000000000000000000000000000009F
:1031300000000000007F7F007F7F00180C000C184B
:10314000000C18000C180006300006300003600068
:1031500003600003600001C00001C00000800000A7
:10316000000000000000000000000000000000005F
:1031700000000000000000000000000000FE3F8092
:10318000FE3F8030060030060030860019CC001962
:10319000CC001B6C001B6C001E7C000E38000E382F
:1031A000000C18000C1800000000000000000000D7
:1031B000000000000000000000000000000000000F
:1031C00000000000007E7E007E7E001818000C309B
:1031D0000006600003C00001800001800003C00001
:1031E0000660000C30001818007E7E007E7E000015
:1031F00000000000000000000000000000000000CF
:10320000000000000000000000000000007C7E00C4
:103210007C7E001818000C30000660000660000379
:10322000C000018000018000018000018000018059
:10323000000FF0000FF00000000000000000000090
:10324000000000000000000000000000000000007E
:1032500000000000001FF8001FF8001818001830C8
:103260000018600018C0000180000300000618006C
:103270000C18001818003018003FF8003FF8000044
:10328000000000000000000000000000000000003E
:103290000000000000000000000001F00001F0004C
:1032A0000180000180000180000180000180000198
:1032B0008000018000018000018000018000018009
:1032C0000001800001800001800001F00001F00099
:1032D00000000000000000000000000018000018BE
:1032E00000001C00000C00000E000006000006009C
:1032F0000003000003000001800001800000C00006
:1033000000C000006000006000007000003000009D
:103310003800001800001800000000000000000045
:10332000000000000000000000000F80000F80007F
:103330000180000180000180000180000180000107
:103340008000018000018000018000018000018078
:10335000000180000180000180000F80000F8000CC
:10336000000000000000000000000000000000005D
:10337000800001C00003E0000770000630000C1858
:1033800000180C0010040000000000000000000005
:10339000000000000000000000000000000000002D
:1033A000000000000000000000000000000000001D
:1033B000000000000000000000000000000000000D
:1033C00000000000000000000000000000000000FD
:1033D00000000000000000000000000000000000ED
:1033E00000000000000000000000000000000000DD
:1033F000000000000000FFFF00FFFF0000000003CE
:10340000000003800000E0000060000000000000F9
:1034100000000000000000000000000000000000AC
:10342000000000000000000000000000000000009C
:10343000000000000000000000000000000000008C
:10344000000000000000000000000000000000007C
:103450000000000000000FC0001FE000003000006E
:10346000300007F0001FF0003830003030003070BE
:10347000001FFC000FBC0000000000000000000066
:10348000000000000000000000000000000000003C
:1034900000007800007800001800001800001BE011
:1034A000001FF8001C1800180C00180C00180C0065
:1034B000180C00180C001C18007FF8007BE00000BE
:1034C00000000000000000000000000000000000FC
:1034D00000000000000000000000000000000000EC
:1034E00000000000000003EC000FFC001C1C003872
:1034F0000C00300C00300000300000380C001C1CA8
:10350000000FF80003F000000000000000000000C1
:1035100000000000000000000000000000000000AB
:10352000000000780000780000180000180007D89C
:10353000001FF8001838003018003018003018004C
:103540003018003018001838001FFE0007DE000099
:10355000000000000000000000000000000000006B
:10356000000000000000000000000000000000005B
:1035700000000000000007E0001FF80018180030ED
:103580000C003FFC003FFC00300000300000180C35
:10359000001FFC0007F00000000000000000000019
:1035A000000000000000000000000000000000001B
:1035B000000001FC0003FC000600000600003FF8CC
:1035C000003FF800060000060000060000060000AC
:1035D0000600000600000600003FF0003FF000007B
:1035E00000000000000000000000000000000000DB
:1035F00000000000000000000000000000000000CB
:1036000000000000000007DE001FFE001838003038
:103610001800301800301800301800301800183822
:10362000001FF80007D8000018000018000038003C
:103630000FF0000FC00000000000000000000000BC
:1036400000007800007800001800001800001BE05F
:10365000001FF0001C380018180018180018180077
:103660001818001818001818007E7E007E7E0000D2
:10367000000000000000000000000000000000004A
:103680000000000000000000000001800001800038
:103690000000000000001F80001F8000018000016A
:1036A0008000018000018000018000018000018015
:1036B000003FFC003FFC0000000000000000000094
:1036C00000000000000000000000000000000000FA
:1036D000000000C00000C0000000000000001FF05B
:1036E000001FF0000030000030000030000030000B
:1036F00000300000300000300000300000300000DA
:1037000030000030000070001FE0001F800000004B
:10371000000000000000000000003C00003C000031
:103720000C00000C00000CF8000CF8000CC0000DA0
:1037300080000F80000F00000F80000DC0000CE023
:10374000003C7C003C7C0000000000000000000009
:103750000000000000000000000000000000000069
:1037600000001F80001F8000018000018000018098
:1037700000018000018000018000018000018000C4
:103780000180000180000180003FFC003FFC000040
:103790000000000000000000000000000000000029
:1037A0000000000000000000000000000000000019
:1037B000000000000000F77800FFFC0039CC003169
:1037C0008C00318C00318C00318C00318C00318CBC
:1037D00000FDEF00FDEF0000000000000000000011
:1037E00000000000000000000000000000000000D9
:1037F00000000000000000000000000000007BE06E
:10380000007FF0001C380018180018180018180065
:103810001818001818001818007E7E007E7E000020
:103820000000000000000000000000000000000098
:103830000000000000000000000000000000000088
:1038400000000000000003C0000FF0001C3800382A
:103850001C00300C00300C00300C00381C001C38F0
:10386000000FF00003C00000000000000000000096
:103870000000000000000000000000000000000048
:1038800000000000000000000000000000007BE0DD
:10389000007FF8001C1800180C00180C00180C0011
:1038A000180C00180C001C18001FF8001BE0001872
:1038B00000001800001800007F00007F00000000DA
:1038C00000000000000000000000000000000000F8
:1038D00000000000000007DE001FFE001838003066
:1038E0001800301800301800301800301800183850
:1038F000001FF80007D8000018000018000018008A
:1039000000FE0000FE0000000000000000000000BB
:1039100000000000000000000000000000003E78F1
:10392000003EFC0007CC0007000006000006000077
:103930000600000600000600003FF0003FF0000017
:103940000000000000000000000000000000000077
:103950000000000000000000000000000000000067
:1039600000000000000007F8000FF8001818001809
:1039700018001F80000FF00000F800181800183819
:10398000001FF0001FE00000000000000000000029
:103990000000000000000000000000000000000027
:1039A00000000C00000C00000C00000C00003FF0B8
:1039B000003FF0000C00000C00000C00000C0000A8
:1039C0000C00000C00000C1C0007FC0003F00000C1
:1039D00000000000000000000000000000000000E7
:1039E00000000000000000000000000000000000D7
:1039F000000000000000787800787800181800189F
:103A0000180018180018180018180018180018388E
:103A1000000FFE0007DE00000000000000000000B4
:103A20000000000000000000000000000000000096
:103A300000000000000000000000000000007C3ECC
:103A4000007C3E001818001818000C30000C3000E4
:103A500006600006600007E00003C00003C000002D
:103A60000000000000000000000000000000000056
:103A70000000000000000000000000000000000046
:103A8000000000000000783C00783C003118003352
:103A900098003398001AB0001EF0001EF0001C6061
:103AA000000C60000C60000000000000000000003E
:103AB0000000000000000000000000000000000006
:103AC00000000000000000000000000000003E7C3C
:103AD000003E7C000C300006600003C00001800046
:103AE00003C0000660000C30003E7C003E7C0000FD
:103AF00000000000000000000000000000000000C6
:103B000000000000000000000000000000000000B5
:103B10000000000000007E1F007E1F00180C000C3B
:103B200018000C180006300006300003600003E0A7
:103B30000001C00000C000018000018000030000FF
:103B40003FC0003FC0000000000000000000000077
:103B500000000000000000000000000000001FF84E
:103B6000001FF80018300018600000C0000180003D
:103B70000300000618000C18001FF8001FF80000D2
:103B80000000000000000000000000000000000035
:103B90000000000000000000000000E00001E00064
:103BA000018000018000018000018000018000018F
:103BB0008000038000070000038000018000018076
:103BC0000001800001800001800001E00000E000B1
:103BD00000000000000000000000000000000000E5
:103BE0000000018000018000018000018000018050
:103BF0000001800001800001800001800001800040
:103C0000018000018000018000018000018000012E
:103C10008000018000018000000000000000000022
:103C20000000000000000000000007000007800006
:103C300001800001800001800001800001800001FE
:103C4000800001C00000E00001C000018000018090
:103C50000001800001800001800007800007000053
:103C60000000000000000000000000000000000054
:103C70000000000000000000000000000000000044
:103C8000000000000E00001F18003BB80031F000DB
:103C900000E0000000000000000000000000000044
:103CA0000000000000000000000000000000000014
:103CB00000000000C4E3000000000000000000005D
:103CC00000000000000000000000000000000000F4
:103CD000000001C1C00001E3E00003E3C00003C72E
:103CE000800003C7FFFF078FFFFF078F000F0F1E26
:103CF000001E0F3C1E1E1F3C1E3E1F181E3C3F0098
:103D00001E1C7F001E007F079E70FF079EF0EF0FB6
:103D10009E786F0F1E780F0F1E3C0F1E1E3C0F1E4D
:103D20001E1E0F3C1E1E0F3C1E1F0F7C1E0F0F7809
:103D30001E0E0F001E000F001E000F003C000F079C
:103D4000FC000F07F8000000000000000000000069
:103D500000000000000000000000BAC300000000E6
:103D60000000000000000000000000000000000053
:103D7000000000000F0000000F0000000F07FFFE12
:103D80000F07FFFE0F00003E1E0000FCFFF801F0D1
:103D9000FFF803E01E7807C01E780F803C780F0004
:103DA0003C780F003C780F003C780F003C7FFFFF11
:103DB00078FFFFFF78F00F0078F00F003DE00F0074
:103DC0001FE00F000FE00F0007C00F0007E00F001B
:103DD00007F00F000FF80F001E7C0F003C380F009B
:103DE00078000F00F003FF006001FE0000000000FB
:103DF00000000000000000000000000000000000C3
:103E0000CEA2000000000000000000000000000042
:103E100000000000000000000000030701E0078729
:103E200001E0070701C00FF779C01EF77BC01EF73E
:103E30007B803CF77BFF78F77BFFF8F77F9EF7FFEF
:103E4000FF9E67FFFF9E07007F9C0F000F9C1E00D8
:103E50001F9C1E7FFFBC3E7FF3FC3E0003FC7E00E8
:103E600001F8FE0001F8FE7FE1F8DE7FE1F81E7840
:103E7000E0F01E78EEF01E78FFF01E78FDF81E7957
:103E8000FBFC1EF1F7BC1EF0EF9E1FE00F0F1EC0E3
:103E90001E0F1E000C0700000000000000000000C4
:103EA000000000000000C8ED00000000000000005D
:103EB00000000000000000000000000003C07800C7
:103EC00007807800078078000780F0000F00F0007E
:103ED000FFFFFFFFFFFFFFFF1E03C01F1E03C01EEB
:103EE0001FE78F3E3DE78F3C3DEF0F7C3DE70F78AE
:103EF00079E00F0079E00E007FFE0E007FFE1F00CC
:103F000001E01F0001E01F0001E01F8001E01F80B1
:103F100001E03F8001FF3FC00FFF7BC0FFF079E071
:103F2000F9E0F1F001E1F0F001E3E0F801E7C07C35
:103F300001FF803F01FF001F01EC000E00000000A8
:103F4000000000000000000000000000D1C50000DB
:103F50000000000000000000000000000000000061
:103F6000000000000000000077000000FF007FFC60
:103F7000F7807FFDE3C001C1E3C001C3C1803DC73D
:103F8000FFFF39C7FFFF39CF838079DF838079FF57
:103F9000838079DF838071C383807FFFFFFE7FFF93
:103FA000FFFE03C3838007C3838007C383800FC3DF
:103FB00083800FC383801FC3FFFE1DC3FFFE3DC36D
:103FC000838079C38380F1C38380F1C3838061C31D
:103FD000838001C3FFFF03C3FFFF1FC380001F8354
:103FE0008000000000000000000000000000000051
:103FF0000000BADA0000000000000000000000002D
:1040000000000000000000000000000000000000B0
:10401000000000001FFFFFFC1FFFFFFC1E03C03C51
:104020001EC3C73C1FE3C7BC1EF3CF3C1EFBDF3CD7
:104030001E7BDE3C1E33DC3C1E03C03C1FFFFFFC2E
:104040001FFFFFFC1E03C03C0003C0000003C000B4
:104050003FFFFFFC3FFFFFFC0003C0000003C00068
:104060000003C000FFFFFFFFFFFFFFFF0000000095
:104070001C3870703E78F8F83C7C787C7C3C3C3E88
:10408000F83E3C1FF01C180E00000000000000006D
:104090000000000000000000B4CB000000000000A1
:1040A0000000000000000000000000000000000010
:1040B00000000000000000783C0000783C00007820
:1040C0003C0000783C0000783C0000783C0C3C78D8
:1040D0003C1E3C783C3F3C783CF83C7FFDF03C7F0C
:1040E000FFE03C783F803C783E003C783C003C78E8
:1040F0003C003C783C003C783C003C783C003C7800
:104100003C003C783C0E3C783C0F3C783C0F3C79C2
:10411000FC0F3C7FFC0F3FFF3C0F3FF03E1EFF00BB
:104120001FFEF0000FFC0000000000000000000077
:104130000000000000000000000000000000D7D6D2
:10414000000000000000000000000000000000006F
:104150000000000000038000000780000003C00092
:104160000003E0000001E0007FFFFFFE7FFFFFFE95
:104170007800001E7800001E7800001E7800001EE7
:104180007BFFFFDE03FFFFC000000FC000003F0009
:1041900000007E000001F8000001E0000001E000E6
:1041A000FFFFFFFFFFFFFFFF0001E0000001E00055
:1041B0000001E0000001E0000001E0000001E0007B
:1041C0000003E0000003C00000FFC00000FF80000B
:1041D00000000000000000000000000000000000DF
:1041E00000000000CCE5000000000000000000001E
:1041F00000000000000000000000000000000000BF
:10420000000003C03C0003C03C0003C03C0007802A
:104210003C0007803C0007803C000FFFFFFF0FFFC2
:10422000FFFF1F01FE001F01FF003F01FF003F03D2
:10423000FF007F03FF807F07BF80FF07BFC0EF0F36
:104240003DC0CF0F3DE00F1E3DE00F1E3CF00F3C88
:104250003C780F7C3C7C0FF83C3E0FF7FFDF0FE70C
:10426000FFCF0FC03C060F003C000F003C000F00CA
:104270003C000F003C000F003C000000000000006C
:1042800000000000000000000000CFC2000000009D
:10429000000000000000000000000000000000001E
:1042A000000000000000000000000000FFFFFFFF12
:1042B000FFFFFFFF000F8000000F8000000F800055
:1042C000000F8000000F8000000F8000000FE00052
:1042D000000FF800000FFC00000FBF00000F9F80D0
:1042E000000F87E0000F83F0000F80F8000F807C44
:1042F000000F8038000F8000000F8000000F80004A
:10430000000F8000000F8000000F8000000F800071
:10431000000F8000000F8000000F800000000000F0
:10432000000000000000000000000000000000008D
:10433000B6D40000000000000000000000000000F3
:10434000000000000000000000000000000000006D
:10435000007800000078000000787FFC00787FFC87
:104360000078003C0078003FFFFF303FFFFF783CC3
:1043700000783C3800783E7800781E78C0780F7955
:10438000E0780FF0F07807F0F87803F0787801E043
:104390003C7803F03E7803F0187807F8007807FCC3
:1043A00000780F3E00781F1E00783E1F00787C0EBC
:1043B00000F8F80000F0F0003FF060003FE000007F
:1043C00000000000000000000000000000000000ED
:1043D000000000000000D3A6000000000000000064
:1043E0000000000000000000000000000001C0000C
:1043F0000003E0000001E0000001F0000000F00018
:104400001FFFFFFF1FFFFFFF1E0000001E00000038
:104410001E01E0781E01E0781EE1E0781FF1F0F85F
:104420001EF0F0F01EF0F0F01EF8F0F01E78F1F043
:104430001E78F9E01E7879E01E7C7BE01E3C7BC094
:104440001E3C7BC01E3C7BC03C3E07803C1C078062
:104450003C0007803C000F0078000F007BFFFFFF4F
:10446000F3FFFFFFF000000060000000000000000C
:10447000000000000000000000000000B5C40000C3
:10448000000000000000000000000000000000002C
:1044900000000000000003803C0007C03E000780D1
:1044A0003C0007807C000F0078007FFE7FFE7FFECF
:1044B000FFFE781EF01E781FE01E781FE01E781F9A
:1044C000C01E781FC01E781FF01E781EF81E781EB2
:1044D0007C1E7FFE3C1E7FFE1E1E781E1F1E781E49
:1044E0000F9E781E079E781E071E781E001E781EDF
:1044F000001E781E003E781E003C781E003C7FFEA9
:10450000003C7FFE007C781E3FF8781E3FF00000E4
:10451000000000000000000000000000000000009B
:104520000000B5E3000000000000000000000000F3
:104530000000000000000000000000000003C000B8
:104540000003C0000003C0000003C0000003FFFF21
:104550000003FFFF0003C0000003C0000003C00011
:104560000003C0000FFFFFF80FFFFFF80F000078F7
:104570000F0000780F0000780F0000780F0000781F
:104580000F0000780FFFFFF80FFFFFF80F00007813
:10459000000000000C3838301E7C78783E3C78787B
:1045A0003C3C3C3C7C3E3C3EF81E3C1EF01E1E1F2C
:1045B000701E1C0E00000000000000000000000043
:1045C0000000000000000000D5F300000000000023
:1045D00000000000000000000000000000000000DB
:1045E000000000003C00000078007FF078007FF0C1
:1045F000780079FFFFFF79FFFFFF79E1E00079E1C3
:10460000E0007BC1EF807BC3CF807BC3CF807F87FF
:10461000CF807F878F807F878F807BCF0F807BCFFE
:10462000FFFE79EFFFFE79E00F8078E00F8078F0F1
:104630000F8078F00F8078F00F8078FFFFFF79FF10
:10464000FFFF7FE00F807FC00F8078000F80780031
:104650000F8078000F8078000F8078000F800000B6
:104660000000000000000000000000000000CEAAD2
:10467000000000000000000000000000000000003A
:1046800000000000000000000000000000078000A3
:104690000E0780001F0780000F87800007C780007B
:1046A00001E7800000C78000000780007FFFFFFC5B
:1046B0007FFFFFFC0007803C000F803C000F003CA8
:1046C000000F003C000F603C001FF03C001E783CD7
:1046D000003E3C3C003C3E3C007C1F3C00780F3CD4
:1046E00000F8063C01F0003C03E0007C07C0007CC1
:1046F0000F8000781F0000F83E00FFF07C00FFE014
:104700003800000000000000000000000000000071
:1047100000000000CAF700000000000000000000D8
:104720000000000000000000000000000000000089
:1047300000000F0000380F0000380F0000380F3F56
:10474000F8380F3FF8380F007838FFE07FFFFFE0C0
:104750007FFF0F0070380F18F0381F3CF0381F1C17
:10476000FE381FDEFE383FEFEF383FFFEF383FF7F0
:10477000E7B87F67C7B87F03C3B8FF07E038EF0724
:10478000E038EF0FF038CF1FF0380F1E78380F3CAD
:104790007C380F783C380FF838380F6000780F00FD
:1047A0000FF80F0007F00F000000000000000000ED
:1047B00000000000000000000000DDAE000000006E
:1047C00000000000000000000000000000000000E9
:1047D00000000000003C1E00003C1E00003C1E00CB
:1047E000FFFFFFFFFFFFFFFF003C1E0007BC1E0096
:1047F000078000000FFFFFFC0FFFFFFC1E00000002
:104800003C0000003C0000007FFFFFF0F7FFFFF0DE
:10481000378380F00787C0F00783F0F00700E0F0EF
:10482000FFFFFFFFFFFFFFFF0F0F00E00F0F81E013
:104830000E03E1E01E01C1E01FFFFFFE1FFFFFFEB0
:10484000000001E0000003C00000FFC00000FF8086
:104850000000000000000000000000000000000058
:10486000C5C90000000000000000000000000000BA
:104870000000000000000000000000000000380000
:10488000003E7C003FFE3F3FFFF01FBFE00007BC43
:104890000000033C0000003C003C003C0FFE703D6B
:1048A000FFF8F83DFF007C3DE7803F3DE7801F3D7E
:1048B000E78E0E3DE79F003DE7FE0039E7F800393F
:1048C000E3F01C39E3C01E79E3C01E79E1E01E79F4
:1048D000E1E03C79E0F03C79E0F83CF1E07C3CF14F
:1048E000E37C7DF1EF3F79E1FE1F7BE1F80E7BC3B6
:1048F000E0007981C000000000000000000000001E
:104900000000000000004100000000000000000066
:104910000000000000000000000000000000000097
:104920000000000000000000007C000000FC00000F
:1049300000FE000000FE000001FF000001FF00007B
:1049400001EF000003EF800003CF800007C7800065
:1049500007C7C0000787C0000F83E0000F83E00097
:104960000F01E0001FFFF0001FFFF0003FFFF80005
:104970003E00F8003C00F8007C007C007C007C00DD
:1049800078003C00F8003E00F8003E000000000007
:104990000000000000000000000000000000000017
:1049A00000000000000000000000000061000000A6
:1049B00000000000000000000000000000000000F7
:1049C00000000000000000000000000000000000E7
:1049D00000000000000000000000000000000000D7
:1049E0000000000000000000000007F800001FFEAB
:1049F00000003FFE00003E3F0000381F0000000F97
:104A00000000000F000003FF00001FFF00003F8FA9
:104A100000007C0F00007C0F0000781F00007C1F4E
:104A200000007E7F00007FFF00003FFF00000FCFEF
:104A30000000000000000000000000000000000076
:104A40000000000000000000000000000000000066
:104A500000006200000000000000000000000000F4
:104A60000000000000000000000000000000000046
:104A70003C0000003C0000003C0000003C00000046
:104A80003C0000003C0000003C0000003C00000036
:104A90003CFE00003DFF80003FFFC0003F8FC00094
:104AA0003F07E0003E03E0003E03E0003C01E00081
:104AB0003C01E0003C01E0003C03E0003E03E0007C
:104AC0003E03E0003F07C0003F8FC0003FFF800073
:104AD0003FFF00003CFC0000000000000000000060
:104AE00000000000000000000000000000000000C6
:104AF0000000000000000000630000000000000053
:104B000000000000000000000000000000000000A5
:104B10000000000000000000000000000000000095
:104B20000000000000000000000000000000000085
:104B300000000000000001FC000007FE00001FFE56
:104B400000003F8600003E0000007C0000007C006A
:104B500000007C00000078000000780000007C006D
:104B600000007C0000007C0000003E0000003F864A
:104B700000001FFE00000FFE000003FC000000000C
:104B80000000000000000000000000000000000025
:104B90000000000000000000000000000000CEA2A5
:104BA0000000000000000000000000000000000005
:104BB0000000000000000000030701E0078701E09B
:104BC000070701C00FF779C01EF77BC01EF77B8077
:104BD0003CF77BFF78F77BFFF8F77F9EF7FFFF9EA0
:104BE00067FFFF9E07007F9C0F000F9C1E001F9C0D
:104BF0001E7FFFBC3E7FF3FC3E0003FC7E0001F8FD
:104C0000FE0001F8FE7FE1F8DE7FE1F81E78E0F0BB
:104C10001E78EEF01E78FFF01E78FDF81E79FBFC82
:104C20001EF1F7BC1EF0EF9E1FE00F0F1EC01E0FFF
:104C30001E000C0700000000000000000000000043
:104C400000000000D1A900000000000000000000EA
:104C50000000000000000000000000000000000054
:104C60000000000000001FFFFFF81FFFFFF8000317
:104C7000C0000003C0007FFFFFFE7FFFFFFE780340
:104C8000C01E7803C01E7FFFFFFE7FFFFFFE0003F4
:104C9000C0000003C00007FFFFE007FFFFE00003C4
:104CA000C000000000001FFFFFF81FFFFFF800001A
:104CB0000078000000781FFFFFF81FFFFFF80000DA
:104CC000007800000078000000783FFFFFF83FFF09
:104CD000FFF8000000780000000000000000000065
:104CE00000000000000000000000B5E70000000028
:104CF00000000000000000000000000000000000B4
:104D0000000000000007800000078000000780000E
:104D1000000780007FFFFFF87FFFFFF8780780F82B
:104D2000780780F8780780F8780780F8780780F8A7
:104D3000780780F87FFFFFF87FFFFFF8780780F89B
:104D4000780780F8780780F8780780F8780780F887
:104D5000780780F87FFFFFF87FFFFFF87807800E65
:104D60007807800F0007800F0007800F0007801F63
:104D70000007801E0003FFFE0001FFFC0000000092
:104D80000000000000000000000000000000000023
:104D9000D7D3000000000000000000000000000069
:104DA0000000000000000000000000000000000003
:104DB00000001FFFFFF81FFFFFF8000001F80000D0
:104DC00007E000000FC000001F8000003E00000050
:104DD000FC000001F8000003E0000003E000000315
:104DE000E000FFFFFFFFFFFFFFFF0003E000000305
:104DF000E0000003E0000003E0000003E000000327
:104E0000E0000003E0000003E0000003E000000316
:104E1000E0000003E0000003C00001FFC00000FF4D
:104E20008000000000000000000000000000000002
:104E300000000000000000004465627567203A2011
:104E40005061696E745F44726177537472696E6702
:104E50005F454E20496E70757420657863656564A2
:104E60007320746865206E6F726D616C2064697365
:104E7000706C61792072616E67650D0A0000000038
:104E8000A04E00080000002028000000441F000879
:104E9000C84E000828000020F0040000541F00083D
:104EA00000A24A0401000000100000000000000001
:104EB000FC21000811001800B43C00081B00180079
:084EC0002000290000000000A1
:04000005080000ED02
:00000001FF
